{
  "_format": "hh-sol-artifact-1",
  "contractName": "BasicNFT",
  "sourceName": "contracts/BasicNFT.sol",
  "abi": [
    {
      "inputs": [
        {
          "internalType": "string",
          "name": "name",
          "type": "string"
        },
        {
          "internalType": "string",
          "name": "symbol",
          "type": "string"
        }
      ],
      "stateMutability": "nonpayable",
      "type": "constructor"
    },
    {
      "inputs": [
        {
          "internalType": "address",
          "name": "sender",
          "type": "address"
        },
        {
          "internalType": "uint256",
          "name": "tokenId",
          "type": "uint256"
        },
        {
          "internalType": "address",
          "name": "owner",
          "type": "address"
        }
      ],
      "name": "ERC721IncorrectOwner",
      "type": "error"
    },
    {
      "inputs": [
        {
          "internalType": "address",
          "name": "operator",
          "type": "address"
        },
        {
          "internalType": "uint256",
          "name": "tokenId",
          "type": "uint256"
        }
      ],
      "name": "ERC721InsufficientApproval",
      "type": "error"
    },
    {
      "inputs": [
        {
          "internalType": "address",
          "name": "approver",
          "type": "address"
        }
      ],
      "name": "ERC721InvalidApprover",
      "type": "error"
    },
    {
      "inputs": [
        {
          "internalType": "address",
          "name": "operator",
          "type": "address"
        }
      ],
      "name": "ERC721InvalidOperator",
      "type": "error"
    },
    {
      "inputs": [
        {
          "internalType": "address",
          "name": "owner",
          "type": "address"
        }
      ],
      "name": "ERC721InvalidOwner",
      "type": "error"
    },
    {
      "inputs": [
        {
          "internalType": "address",
          "name": "receiver",
          "type": "address"
        }
      ],
      "name": "ERC721InvalidReceiver",
      "type": "error"
    },
    {
      "inputs": [
        {
          "internalType": "address",
          "name": "sender",
          "type": "address"
        }
      ],
      "name": "ERC721InvalidSender",
      "type": "error"
    },
    {
      "inputs": [
        {
          "internalType": "uint256",
          "name": "tokenId",
          "type": "uint256"
        }
      ],
      "name": "ERC721NonexistentToken",
      "type": "error"
    },
    {
      "anonymous": false,
      "inputs": [
        {
          "indexed": true,
          "internalType": "address",
          "name": "owner",
          "type": "address"
        },
        {
          "indexed": true,
          "internalType": "address",
          "name": "approved",
          "type": "address"
        },
        {
          "indexed": true,
          "internalType": "uint256",
          "name": "tokenId",
          "type": "uint256"
        }
      ],
      "name": "Approval",
      "type": "event"
    },
    {
      "anonymous": false,
      "inputs": [
        {
          "indexed": true,
          "internalType": "address",
          "name": "owner",
          "type": "address"
        },
        {
          "indexed": true,
          "internalType": "address",
          "name": "operator",
          "type": "address"
        },
        {
          "indexed": false,
          "internalType": "bool",
          "name": "approved",
          "type": "bool"
        }
      ],
      "name": "ApprovalForAll",
      "type": "event"
    },
    {
      "anonymous": false,
      "inputs": [
        {
          "indexed": false,
          "internalType": "uint256",
          "name": "_fromTokenId",
          "type": "uint256"
        },
        {
          "indexed": false,
          "internalType": "uint256",
          "name": "_toTokenId",
          "type": "uint256"
        }
      ],
      "name": "BatchMetadataUpdate",
      "type": "event"
    },
    {
      "anonymous": false,
      "inputs": [
        {
          "indexed": false,
          "internalType": "uint256",
          "name": "_tokenId",
          "type": "uint256"
        }
      ],
      "name": "MetadataUpdate",
      "type": "event"
    },
    {
      "anonymous": false,
      "inputs": [
        {
          "indexed": true,
          "internalType": "address",
          "name": "from",
          "type": "address"
        },
        {
          "indexed": true,
          "internalType": "address",
          "name": "to",
          "type": "address"
        },
        {
          "indexed": true,
          "internalType": "uint256",
          "name": "tokenId",
          "type": "uint256"
        }
      ],
      "name": "Transfer",
      "type": "event"
    },
    {
      "inputs": [
        {
          "internalType": "address",
          "name": "to",
          "type": "address"
        },
        {
          "internalType": "uint256",
          "name": "tokenId",
          "type": "uint256"
        }
      ],
      "name": "approve",
      "outputs": [],
      "stateMutability": "nonpayable",
      "type": "function"
    },
    {
      "inputs": [
        {
          "internalType": "address",
          "name": "owner",
          "type": "address"
        }
      ],
      "name": "balanceOf",
      "outputs": [
        {
          "internalType": "uint256",
          "name": "",
          "type": "uint256"
        }
      ],
      "stateMutability": "view",
      "type": "function"
    },
    {
      "inputs": [
        {
          "internalType": "uint256",
          "name": "tokenId",
          "type": "uint256"
        }
      ],
      "name": "getApproved",
      "outputs": [
        {
          "internalType": "address",
          "name": "",
          "type": "address"
        }
      ],
      "stateMutability": "view",
      "type": "function"
    },
    {
      "inputs": [
        {
          "internalType": "address",
          "name": "owner",
          "type": "address"
        },
        {
          "internalType": "address",
          "name": "operator",
          "type": "address"
        }
      ],
      "name": "isApprovedForAll",
      "outputs": [
        {
          "internalType": "bool",
          "name": "",
          "type": "bool"
        }
      ],
      "stateMutability": "view",
      "type": "function"
    },
    {
      "inputs": [],
      "name": "name",
      "outputs": [
        {
          "internalType": "string",
          "name": "",
          "type": "string"
        }
      ],
      "stateMutability": "view",
      "type": "function"
    },
    {
      "inputs": [
        {
          "internalType": "uint256",
          "name": "tokenId",
          "type": "uint256"
        }
      ],
      "name": "ownerOf",
      "outputs": [
        {
          "internalType": "address",
          "name": "",
          "type": "address"
        }
      ],
      "stateMutability": "view",
      "type": "function"
    },
    {
      "inputs": [
        {
          "internalType": "address",
          "name": "from",
          "type": "address"
        },
        {
          "internalType": "address",
          "name": "to",
          "type": "address"
        },
        {
          "internalType": "uint256",
          "name": "tokenId",
          "type": "uint256"
        }
      ],
      "name": "safeTransferFrom",
      "outputs": [],
      "stateMutability": "nonpayable",
      "type": "function"
    },
    {
      "inputs": [
        {
          "internalType": "address",
          "name": "from",
          "type": "address"
        },
        {
          "internalType": "address",
          "name": "to",
          "type": "address"
        },
        {
          "internalType": "uint256",
          "name": "tokenId",
          "type": "uint256"
        },
        {
          "internalType": "bytes",
          "name": "data",
          "type": "bytes"
        }
      ],
      "name": "safeTransferFrom",
      "outputs": [],
      "stateMutability": "nonpayable",
      "type": "function"
    },
    {
      "inputs": [
        {
          "internalType": "address",
          "name": "operator",
          "type": "address"
        },
        {
          "internalType": "bool",
          "name": "approved",
          "type": "bool"
        }
      ],
      "name": "setApprovalForAll",
      "outputs": [],
      "stateMutability": "nonpayable",
      "type": "function"
    },
    {
      "inputs": [
        {
          "internalType": "bytes4",
          "name": "interfaceId",
          "type": "bytes4"
        }
      ],
      "name": "supportsInterface",
      "outputs": [
        {
          "internalType": "bool",
          "name": "",
          "type": "bool"
        }
      ],
      "stateMutability": "view",
      "type": "function"
    },
    {
      "inputs": [],
      "name": "symbol",
      "outputs": [
        {
          "internalType": "string",
          "name": "",
          "type": "string"
        }
      ],
      "stateMutability": "view",
      "type": "function"
    },
    {
      "inputs": [
        {
          "internalType": "uint256",
          "name": "tokenId",
          "type": "uint256"
        }
      ],
      "name": "tokenURI",
      "outputs": [
        {
          "internalType": "string",
          "name": "",
          "type": "string"
        }
      ],
      "stateMutability": "view",
      "type": "function"
    },
    {
      "inputs": [
        {
          "internalType": "uint256",
          "name": "tokenId",
          "type": "uint256"
        },
        {
          "internalType": "address",
          "name": "to",
          "type": "address"
        }
      ],
      "name": "transfer",
      "outputs": [],
      "stateMutability": "nonpayable",
      "type": "function"
    },
    {
      "inputs": [
        {
          "internalType": "address",
          "name": "from",
          "type": "address"
        },
        {
          "internalType": "address",
          "name": "to",
          "type": "address"
        },
        {
          "internalType": "uint256",
          "name": "tokenId",
          "type": "uint256"
        }
      ],
      "name": "transferFrom",
      "outputs": [],
      "stateMutability": "nonpayable",
      "type": "function"
    }
  ],
  "bytecode": "0x608060405234801562000010575f80fd5b50604051620026b2380380620026b28339818101604052810190620000369190620001ea565b8181815f9081620000489190620004a4565b5080600190816200005a9190620004a4565b505050505062000588565b5f604051905090565b5f80fd5b5f80fd5b5f80fd5b5f80fd5b5f601f19601f8301169050919050565b7f4e487b71000000000000000000000000000000000000000000000000000000005f52604160045260245ffd5b620000c6826200007e565b810181811067ffffffffffffffff82111715620000e857620000e76200008e565b5b80604052505050565b5f620000fc62000065565b90506200010a8282620000bb565b919050565b5f67ffffffffffffffff8211156200012c576200012b6200008e565b5b62000137826200007e565b9050602081019050919050565b5f5b838110156200016357808201518184015260208101905062000146565b5f8484015250505050565b5f620001846200017e846200010f565b620000f1565b905082815260208101848484011115620001a357620001a26200007a565b5b620001b084828562000144565b509392505050565b5f82601f830112620001cf57620001ce62000076565b5b8151620001e18482602086016200016e565b91505092915050565b5f80604083850312156200020357620002026200006e565b5b5f83015167ffffffffffffffff81111562000223576200022262000072565b5b6200023185828601620001b8565b925050602083015167ffffffffffffffff81111562000255576200025462000072565b5b6200026385828601620001b8565b9150509250929050565b5f81519050919050565b7f4e487b71000000000000000000000000000000000000000000000000000000005f52602260045260245ffd5b5f6002820490506001821680620002bc57607f821691505b602082108103620002d257620002d162000277565b5b50919050565b5f819050815f5260205f209050919050565b5f6020601f8301049050919050565b5f82821b905092915050565b5f60088302620003367fffffffffffffffffffffffffffffffffffffffffffffffffffffffffffffffff82620002f9565b620003428683620002f9565b95508019841693508086168417925050509392505050565b5f819050919050565b5f819050919050565b5f6200038c6200038662000380846200035a565b62000363565b6200035a565b9050919050565b5f819050919050565b620003a7836200036c565b620003bf620003b68262000393565b84845462000305565b825550505050565b5f90565b620003d5620003c7565b620003e28184846200039c565b505050565b5b818110156200040957620003fd5f82620003cb565b600181019050620003e8565b5050565b601f82111562000458576200042281620002d8565b6200042d84620002ea565b810160208510156200043d578190505b620004556200044c85620002ea565b830182620003e7565b50505b505050565b5f82821c905092915050565b5f6200047a5f19846008026200045d565b1980831691505092915050565b5f62000494838362000469565b9150826002028217905092915050565b620004af826200026d565b67ffffffffffffffff811115620004cb57620004ca6200008e565b5b620004d78254620002a4565b620004e48282856200040d565b5f60209050601f8311600181146200051a575f841562000505578287015190505b62000511858262000487565b86555062000580565b601f1984166200052a86620002d8565b5f5b8281101562000553578489015182556001820191506020850194506020810190506200052c565b868310156200057357848901516200056f601f89168262000469565b8355505b6001600288020188555050505b505050505050565b61211c80620005965f395ff3fe608060405234801561000f575f80fd5b50600436106100e8575f3560e01c806370a082311161008a578063b7760c8f11610064578063b7760c8f14610258578063b88d4fde14610274578063c87b56dd14610290578063e985e9c5146102c0576100e8565b806370a08231146101ee57806395d89b411461021e578063a22cb4651461023c576100e8565b8063095ea7b3116100c6578063095ea7b31461016a57806323b872dd1461018657806342842e0e146101a25780636352211e146101be576100e8565b806301ffc9a7146100ec57806306fdde031461011c578063081812fc1461013a575b5f80fd5b610106600480360381019061010191906118e1565b6102f0565b6040516101139190611926565b60405180910390f35b610124610350565b60405161013191906119c9565b60405180910390f35b610154600480360381019061014f9190611a1c565b6103df565b6040516101619190611a86565b60405180910390f35b610184600480360381019061017f9190611ac9565b6103fa565b005b6101a0600480360381019061019b9190611b07565b610410565b005b6101bc60048036038101906101b79190611b07565b61050f565b005b6101d860048036038101906101d39190611a1c565b61052e565b6040516101e59190611a86565b60405180910390f35b61020860048036038101906102039190611b57565b61053f565b6040516102159190611b91565b60405180910390f35b6102266105f5565b60405161023391906119c9565b60405180910390f35b61025660048036038101906102519190611bd4565b610685565b005b610272600480360381019061026d9190611c12565b61069b565b005b61028e60048036038101906102899190611d7c565b61077f565b005b6102aa60048036038101906102a59190611a1c565b6107a4565b6040516102b791906119c9565b60405180910390f35b6102da60048036038101906102d59190611dfc565b610820565b6040516102e79190611926565b60405180910390f35b5f634906490660e01b7bffffffffffffffffffffffffffffffffffffffffffffffffffffffff1916827bffffffffffffffffffffffffffffffffffffffffffffffffffffffff191614806103495750610348826108ae565b5b9050919050565b60605f805461035e90611e67565b80601f016020809104026020016040519081016040528092919081815260200182805461038a90611e67565b80156103d55780601f106103ac576101008083540402835291602001916103d5565b820191905f5260205f20905b8154815290600101906020018083116103b857829003601f168201915b5050505050905090565b5f6103e98261098f565b506103f382610a15565b9050919050565b61040c8282610407610a4e565b610a55565b5050565b5f73ffffffffffffffffffffffffffffffffffffffff168273ffffffffffffffffffffffffffffffffffffffff1603610480575f6040517f64a0ae920000000000000000000000000000000000000000000000000000000081526004016104779190611a86565b60405180910390fd5b5f610493838361048e610a4e565b610a67565b90508373ffffffffffffffffffffffffffffffffffffffff168173ffffffffffffffffffffffffffffffffffffffff1614610509578382826040517f64283d7b00000000000000000000000000000000000000000000000000000000815260040161050093929190611e97565b60405180910390fd5b50505050565b61052983838360405180602001604052805f81525061077f565b505050565b5f6105388261098f565b9050919050565b5f8073ffffffffffffffffffffffffffffffffffffffff168273ffffffffffffffffffffffffffffffffffffffff16036105b0575f6040517f89c62b640000000000000000000000000000000000000000000000000000000081526004016105a79190611a86565b60405180910390fd5b60035f8373ffffffffffffffffffffffffffffffffffffffff1673ffffffffffffffffffffffffffffffffffffffff1681526020019081526020015f20549050919050565b60606001805461060490611e67565b80601f016020809104026020016040519081016040528092919081815260200182805461063090611e67565b801561067b5780601f106106525761010080835404028352916020019161067b565b820191905f5260205f20905b81548152906001019060200180831161065e57829003601f168201915b5050505050905090565b610697610690610a4e565b8383610c72565b5050565b3373ffffffffffffffffffffffffffffffffffffffff166106bb8361052e565b73ffffffffffffffffffffffffffffffffffffffff16148061071057503373ffffffffffffffffffffffffffffffffffffffff166106f8836103df565b73ffffffffffffffffffffffffffffffffffffffff16145b8061072957506107286107228361052e565b33610820565b5b610768576040517f08c379a000000000000000000000000000000000000000000000000000000000815260040161075f90611f3c565b60405180910390fd5b61077b6107748361052e565b8284610e4b565b5050565b61078a848484610410565b61079e610795610a4e565b85858585610fb3565b50505050565b60606107af8261098f565b505f6107b961115f565b90505f6107c584611175565b90505f8251036107d957809250505061081b565b5f8151111561080d5781816040516020016107f5929190611f94565b6040516020818303038152906040529250505061081b565b61081684611216565b925050505b919050565b5f60055f8473ffffffffffffffffffffffffffffffffffffffff1673ffffffffffffffffffffffffffffffffffffffff1681526020019081526020015f205f8373ffffffffffffffffffffffffffffffffffffffff1673ffffffffffffffffffffffffffffffffffffffff1681526020019081526020015f205f9054906101000a900460ff16905092915050565b5f7f80ac58cd000000000000000000000000000000000000000000000000000000007bffffffffffffffffffffffffffffffffffffffffffffffffffffffff1916827bffffffffffffffffffffffffffffffffffffffffffffffffffffffff1916148061097857507f5b5e139f000000000000000000000000000000000000000000000000000000007bffffffffffffffffffffffffffffffffffffffffffffffffffffffff1916827bffffffffffffffffffffffffffffffffffffffffffffffffffffffff1916145b8061098857506109878261127c565b5b9050919050565b5f8061099a836112e5565b90505f73ffffffffffffffffffffffffffffffffffffffff168173ffffffffffffffffffffffffffffffffffffffff1603610a0c57826040517f7e273289000000000000000000000000000000000000000000000000000000008152600401610a039190611b91565b60405180910390fd5b80915050919050565b5f60045f8381526020019081526020015f205f9054906101000a900473ffffffffffffffffffffffffffffffffffffffff169050919050565b5f33905090565b610a62838383600161131e565b505050565b5f80610a72846112e5565b90505f73ffffffffffffffffffffffffffffffffffffffff168373ffffffffffffffffffffffffffffffffffffffff1614610ab357610ab28184866114dd565b5b5f73ffffffffffffffffffffffffffffffffffffffff168173ffffffffffffffffffffffffffffffffffffffff1614610b3e57610af25f855f8061131e565b600160035f8373ffffffffffffffffffffffffffffffffffffffff1673ffffffffffffffffffffffffffffffffffffffff1681526020019081526020015f205f82825403925050819055505b5f73ffffffffffffffffffffffffffffffffffffffff168573ffffffffffffffffffffffffffffffffffffffff1614610bbd57600160035f8773ffffffffffffffffffffffffffffffffffffffff1673ffffffffffffffffffffffffffffffffffffffff1681526020019081526020015f205f82825401925050819055505b8460025f8681526020019081526020015f205f6101000a81548173ffffffffffffffffffffffffffffffffffffffff021916908373ffffffffffffffffffffffffffffffffffffffff160217905550838573ffffffffffffffffffffffffffffffffffffffff168273ffffffffffffffffffffffffffffffffffffffff167fddf252ad1be2c89b69c2b068fc378daa952ba7f163c4a11628f55a4df523b3ef60405160405180910390a4809150509392505050565b5f73ffffffffffffffffffffffffffffffffffffffff168373ffffffffffffffffffffffffffffffffffffffff1603610ce2575f6040517fa9fbf51f000000000000000000000000000000000000000000000000000000008152600401610cd99190611a86565b60405180910390fd5b5f73ffffffffffffffffffffffffffffffffffffffff168273ffffffffffffffffffffffffffffffffffffffff1603610d5257816040517f5b08ba18000000000000000000000000000000000000000000000000000000008152600401610d499190611a86565b60405180910390fd5b8060055f8573ffffffffffffffffffffffffffffffffffffffff1673ffffffffffffffffffffffffffffffffffffffff1681526020019081526020015f205f8473ffffffffffffffffffffffffffffffffffffffff1673ffffffffffffffffffffffffffffffffffffffff1681526020019081526020015f205f6101000a81548160ff0219169083151502179055508173ffffffffffffffffffffffffffffffffffffffff168373ffffffffffffffffffffffffffffffffffffffff167f17307eab39ab6107e8899845ad3d59bd9653f200f220920489ca2b5937696c3183604051610e3e9190611926565b60405180910390a3505050565b5f73ffffffffffffffffffffffffffffffffffffffff168273ffffffffffffffffffffffffffffffffffffffff1603610ebb575f6040517f64a0ae92000000000000000000000000000000000000000000000000000000008152600401610eb29190611a86565b60405180910390fd5b5f610ec783835f610a67565b90505f73ffffffffffffffffffffffffffffffffffffffff168173ffffffffffffffffffffffffffffffffffffffff1603610f3957816040517f7e273289000000000000000000000000000000000000000000000000000000008152600401610f309190611b91565b60405180910390fd5b8373ffffffffffffffffffffffffffffffffffffffff168173ffffffffffffffffffffffffffffffffffffffff1614610fad578382826040517f64283d7b000000000000000000000000000000000000000000000000000000008152600401610fa493929190611e97565b60405180910390fd5b50505050565b5f8373ffffffffffffffffffffffffffffffffffffffff163b1115611158578273ffffffffffffffffffffffffffffffffffffffff1663150b7a02868685856040518563ffffffff1660e01b81526004016110119493929190612009565b6020604051808303815f875af192505050801561104c57506040513d601f19601f820116820180604052508101906110499190612067565b60015b6110cd573d805f811461107a576040519150601f19603f3d011682016040523d82523d5f602084013e61107f565b606091505b505f8151036110c557836040517f64a0ae920000000000000000000000000000000000000000000000000000000081526004016110bc9190611a86565b60405180910390fd5b805160208201fd5b63150b7a0260e01b7bffffffffffffffffffffffffffffffffffffffffffffffffffffffff1916817bffffffffffffffffffffffffffffffffffffffffffffffffffffffff19161461115657836040517f64a0ae9200000000000000000000000000000000000000000000000000000000815260040161114d9190611a86565b60405180910390fd5b505b5050505050565b606060405180602001604052805f815250905090565b606060065f8381526020019081526020015f20805461119390611e67565b80601f01602080910402602001604051908101604052809291908181526020018280546111bf90611e67565b801561120a5780601f106111e15761010080835404028352916020019161120a565b820191905f5260205f20905b8154815290600101906020018083116111ed57829003601f168201915b50505050509050919050565b60606112218261098f565b505f61122b61115f565b90505f8151116112495760405180602001604052805f815250611274565b80611253846115a0565b604051602001611264929190611f94565b6040516020818303038152906040525b915050919050565b5f7f01ffc9a7000000000000000000000000000000000000000000000000000000007bffffffffffffffffffffffffffffffffffffffffffffffffffffffff1916827bffffffffffffffffffffffffffffffffffffffffffffffffffffffff1916149050919050565b5f60025f8381526020019081526020015f205f9054906101000a900473ffffffffffffffffffffffffffffffffffffffff169050919050565b808061135657505f73ffffffffffffffffffffffffffffffffffffffff168273ffffffffffffffffffffffffffffffffffffffff1614155b15611488575f6113658461098f565b90505f73ffffffffffffffffffffffffffffffffffffffff168373ffffffffffffffffffffffffffffffffffffffff16141580156113cf57508273ffffffffffffffffffffffffffffffffffffffff168173ffffffffffffffffffffffffffffffffffffffff1614155b80156113e257506113e08184610820565b155b1561142457826040517fa9fbf51f00000000000000000000000000000000000000000000000000000000815260040161141b9190611a86565b60405180910390fd5b811561148657838573ffffffffffffffffffffffffffffffffffffffff168273ffffffffffffffffffffffffffffffffffffffff167f8c5be1e5ebec7d5bd14f71427d1e84f3dd0314c0f7b2291e5b200ac8c7c3b92560405160405180910390a45b505b8360045f8581526020019081526020015f205f6101000a81548173ffffffffffffffffffffffffffffffffffffffff021916908373ffffffffffffffffffffffffffffffffffffffff16021790555050505050565b6114e883838361166a565b61159b575f73ffffffffffffffffffffffffffffffffffffffff168373ffffffffffffffffffffffffffffffffffffffff160361155c57806040517f7e2732890000000000000000000000000000000000000000000000000000000081526004016115539190611b91565b60405180910390fd5b81816040517f177e802f000000000000000000000000000000000000000000000000000000008152600401611592929190612092565b60405180910390fd5b505050565b60605f60016115ae8461172a565b0190505f8167ffffffffffffffff8111156115cc576115cb611c58565b5b6040519080825280601f01601f1916602001820160405280156115fe5781602001600182028036833780820191505090505b5090505f82602083010190505b60011561165f578080600190039150507f3031323334353637383961626364656600000000000000000000000000000000600a86061a8153600a8581611654576116536120b9565b5b0494505f850361160b575b819350505050919050565b5f8073ffffffffffffffffffffffffffffffffffffffff168373ffffffffffffffffffffffffffffffffffffffff161415801561172157508273ffffffffffffffffffffffffffffffffffffffff168473ffffffffffffffffffffffffffffffffffffffff1614806116e257506116e18484610820565b5b8061172057508273ffffffffffffffffffffffffffffffffffffffff1661170883610a15565b73ffffffffffffffffffffffffffffffffffffffff16145b5b90509392505050565b5f805f90507a184f03e93ff9f4daa797ed6e38ed64bf6a1f0100000000000000008310611786577a184f03e93ff9f4daa797ed6e38ed64bf6a1f010000000000000000838161177c5761177b6120b9565b5b0492506040810190505b6d04ee2d6d415b85acef810000000083106117c3576d04ee2d6d415b85acef810000000083816117b9576117b86120b9565b5b0492506020810190505b662386f26fc1000083106117f257662386f26fc1000083816117e8576117e76120b9565b5b0492506010810190505b6305f5e100831061181b576305f5e1008381611811576118106120b9565b5b0492506008810190505b6127108310611840576127108381611836576118356120b9565b5b0492506004810190505b606483106118635760648381611859576118586120b9565b5b0492506002810190505b600a8310611872576001810190505b80915050919050565b5f604051905090565b5f80fd5b5f80fd5b5f7fffffffff0000000000000000000000000000000000000000000000000000000082169050919050565b6118c08161188c565b81146118ca575f80fd5b50565b5f813590506118db816118b7565b92915050565b5f602082840312156118f6576118f5611884565b5b5f611903848285016118cd565b91505092915050565b5f8115159050919050565b6119208161190c565b82525050565b5f6020820190506119395f830184611917565b92915050565b5f81519050919050565b5f82825260208201905092915050565b5f5b8381101561197657808201518184015260208101905061195b565b5f8484015250505050565b5f601f19601f8301169050919050565b5f61199b8261193f565b6119a58185611949565b93506119b5818560208601611959565b6119be81611981565b840191505092915050565b5f6020820190508181035f8301526119e18184611991565b905092915050565b5f819050919050565b6119fb816119e9565b8114611a05575f80fd5b50565b5f81359050611a16816119f2565b92915050565b5f60208284031215611a3157611a30611884565b5b5f611a3e84828501611a08565b91505092915050565b5f73ffffffffffffffffffffffffffffffffffffffff82169050919050565b5f611a7082611a47565b9050919050565b611a8081611a66565b82525050565b5f602082019050611a995f830184611a77565b92915050565b611aa881611a66565b8114611ab2575f80fd5b50565b5f81359050611ac381611a9f565b92915050565b5f8060408385031215611adf57611ade611884565b5b5f611aec85828601611ab5565b9250506020611afd85828601611a08565b9150509250929050565b5f805f60608486031215611b1e57611b1d611884565b5b5f611b2b86828701611ab5565b9350506020611b3c86828701611ab5565b9250506040611b4d86828701611a08565b9150509250925092565b5f60208284031215611b6c57611b6b611884565b5b5f611b7984828501611ab5565b91505092915050565b611b8b816119e9565b82525050565b5f602082019050611ba45f830184611b82565b92915050565b611bb38161190c565b8114611bbd575f80fd5b50565b5f81359050611bce81611baa565b92915050565b5f8060408385031215611bea57611be9611884565b5b5f611bf785828601611ab5565b9250506020611c0885828601611bc0565b9150509250929050565b5f8060408385031215611c2857611c27611884565b5b5f611c3585828601611a08565b9250506020611c4685828601611ab5565b9150509250929050565b5f80fd5b5f80fd5b7f4e487b71000000000000000000000000000000000000000000000000000000005f52604160045260245ffd5b611c8e82611981565b810181811067ffffffffffffffff82111715611cad57611cac611c58565b5b80604052505050565b5f611cbf61187b565b9050611ccb8282611c85565b919050565b5f67ffffffffffffffff821115611cea57611ce9611c58565b5b611cf382611981565b9050602081019050919050565b828183375f83830152505050565b5f611d20611d1b84611cd0565b611cb6565b905082815260208101848484011115611d3c57611d3b611c54565b5b611d47848285611d00565b509392505050565b5f82601f830112611d6357611d62611c50565b5b8135611d73848260208601611d0e565b91505092915050565b5f805f8060808587031215611d9457611d93611884565b5b5f611da187828801611ab5565b9450506020611db287828801611ab5565b9350506040611dc387828801611a08565b925050606085013567ffffffffffffffff811115611de457611de3611888565b5b611df087828801611d4f565b91505092959194509250565b5f8060408385031215611e1257611e11611884565b5b5f611e1f85828601611ab5565b9250506020611e3085828601611ab5565b9150509250929050565b7f4e487b71000000000000000000000000000000000000000000000000000000005f52602260045260245ffd5b5f6002820490506001821680611e7e57607f821691505b602082108103611e9157611e90611e3a565b5b50919050565b5f606082019050611eaa5f830186611a77565b611eb76020830185611b82565b611ec46040830184611a77565b949350505050565b7f42617369634e46543a2063616c6c6572206973206e6f7420746f6b656e206f775f8201527f6e6572206f7220617070726f7665640000000000000000000000000000000000602082015250565b5f611f26602f83611949565b9150611f3182611ecc565b604082019050919050565b5f6020820190508181035f830152611f5381611f1a565b9050919050565b5f81905092915050565b5f611f6e8261193f565b611f788185611f5a565b9350611f88818560208601611959565b80840191505092915050565b5f611f9f8285611f64565b9150611fab8284611f64565b91508190509392505050565b5f81519050919050565b5f82825260208201905092915050565b5f611fdb82611fb7565b611fe58185611fc1565b9350611ff5818560208601611959565b611ffe81611981565b840191505092915050565b5f60808201905061201c5f830187611a77565b6120296020830186611a77565b6120366040830185611b82565b81810360608301526120488184611fd1565b905095945050505050565b5f81519050612061816118b7565b92915050565b5f6020828403121561207c5761207b611884565b5b5f61208984828501612053565b91505092915050565b5f6040820190506120a55f830185611a77565b6120b26020830184611b82565b9392505050565b7f4e487b71000000000000000000000000000000000000000000000000000000005f52601260045260245ffdfea26469706673582212207779cfed8166c775cb660a1ef3bd2130376be4e44d3a0c51e34802616dd0118864736f6c63430008180033",
  "linkReferences": {},
  "deployedLinkReferences": {}
}