{
  "_format": "hh-sol-artifact-1",
  "contractName": "BasicNFT",
  "sourceName": "contracts/BasicNFT.sol",
  "abi": [
    {
      "inputs": [
        {
          "internalType": "string",
          "name": "name",
          "type": "string"
        }
      ],
      "stateMutability": "nonpayable",
      "type": "constructor"
    },
    {
      "inputs": [
        {
          "internalType": "address",
          "name": "sender",
          "type": "address"
        },
        {
          "internalType": "uint256",
          "name": "tokenId",
          "type": "uint256"
        },
        {
          "internalType": "address",
          "name": "owner",
          "type": "address"
        }
      ],
      "name": "ERC721IncorrectOwner",
      "type": "error"
    },
    {
      "inputs": [
        {
          "internalType": "address",
          "name": "operator",
          "type": "address"
        },
        {
          "internalType": "uint256",
          "name": "tokenId",
          "type": "uint256"
        }
      ],
      "name": "ERC721InsufficientApproval",
      "type": "error"
    },
    {
      "inputs": [
        {
          "internalType": "address",
          "name": "approver",
          "type": "address"
        }
      ],
      "name": "ERC721InvalidApprover",
      "type": "error"
    },
    {
      "inputs": [
        {
          "internalType": "address",
          "name": "operator",
          "type": "address"
        }
      ],
      "name": "ERC721InvalidOperator",
      "type": "error"
    },
    {
      "inputs": [
        {
          "internalType": "address",
          "name": "owner",
          "type": "address"
        }
      ],
      "name": "ERC721InvalidOwner",
      "type": "error"
    },
    {
      "inputs": [
        {
          "internalType": "address",
          "name": "receiver",
          "type": "address"
        }
      ],
      "name": "ERC721InvalidReceiver",
      "type": "error"
    },
    {
      "inputs": [
        {
          "internalType": "address",
          "name": "sender",
          "type": "address"
        }
      ],
      "name": "ERC721InvalidSender",
      "type": "error"
    },
    {
      "inputs": [
        {
          "internalType": "uint256",
          "name": "tokenId",
          "type": "uint256"
        }
      ],
      "name": "ERC721NonexistentToken",
      "type": "error"
    },
    {
      "anonymous": false,
      "inputs": [
        {
          "indexed": true,
          "internalType": "address",
          "name": "owner",
          "type": "address"
        },
        {
          "indexed": true,
          "internalType": "address",
          "name": "approved",
          "type": "address"
        },
        {
          "indexed": true,
          "internalType": "uint256",
          "name": "tokenId",
          "type": "uint256"
        }
      ],
      "name": "Approval",
      "type": "event"
    },
    {
      "anonymous": false,
      "inputs": [
        {
          "indexed": true,
          "internalType": "address",
          "name": "owner",
          "type": "address"
        },
        {
          "indexed": true,
          "internalType": "address",
          "name": "operator",
          "type": "address"
        },
        {
          "indexed": false,
          "internalType": "bool",
          "name": "approved",
          "type": "bool"
        }
      ],
      "name": "ApprovalForAll",
      "type": "event"
    },
    {
      "anonymous": false,
      "inputs": [
        {
          "indexed": false,
          "internalType": "uint256",
          "name": "_fromTokenId",
          "type": "uint256"
        },
        {
          "indexed": false,
          "internalType": "uint256",
          "name": "_toTokenId",
          "type": "uint256"
        }
      ],
      "name": "BatchMetadataUpdate",
      "type": "event"
    },
    {
      "anonymous": false,
      "inputs": [
        {
          "indexed": false,
          "internalType": "uint256",
          "name": "_tokenId",
          "type": "uint256"
        }
      ],
      "name": "MetadataUpdate",
      "type": "event"
    },
    {
      "anonymous": false,
      "inputs": [
        {
          "indexed": true,
          "internalType": "address",
          "name": "from",
          "type": "address"
        },
        {
          "indexed": true,
          "internalType": "address",
          "name": "to",
          "type": "address"
        },
        {
          "indexed": true,
          "internalType": "uint256",
          "name": "tokenId",
          "type": "uint256"
        }
      ],
      "name": "Transfer",
      "type": "event"
    },
    {
      "inputs": [
        {
          "internalType": "address",
          "name": "to",
          "type": "address"
        },
        {
          "internalType": "uint256",
          "name": "tokenId",
          "type": "uint256"
        }
      ],
      "name": "approve",
      "outputs": [],
      "stateMutability": "nonpayable",
      "type": "function"
    },
    {
      "inputs": [
        {
          "internalType": "address",
          "name": "owner",
          "type": "address"
        }
      ],
      "name": "balanceOf",
      "outputs": [
        {
          "internalType": "uint256",
          "name": "",
          "type": "uint256"
        }
      ],
      "stateMutability": "view",
      "type": "function"
    },
    {
      "inputs": [
        {
          "internalType": "uint256",
          "name": "tokenId",
          "type": "uint256"
        }
      ],
      "name": "getApproved",
      "outputs": [
        {
          "internalType": "address",
          "name": "",
          "type": "address"
        }
      ],
      "stateMutability": "view",
      "type": "function"
    },
    {
      "inputs": [
        {
          "internalType": "address",
          "name": "owner",
          "type": "address"
        },
        {
          "internalType": "address",
          "name": "operator",
          "type": "address"
        }
      ],
      "name": "isApprovedForAll",
      "outputs": [
        {
          "internalType": "bool",
          "name": "",
          "type": "bool"
        }
      ],
      "stateMutability": "view",
      "type": "function"
    },
    {
      "inputs": [],
      "name": "name",
      "outputs": [
        {
          "internalType": "string",
          "name": "",
          "type": "string"
        }
      ],
      "stateMutability": "view",
      "type": "function"
    },
    {
      "inputs": [
        {
          "internalType": "uint256",
          "name": "tokenId",
          "type": "uint256"
        }
      ],
      "name": "ownerOf",
      "outputs": [
        {
          "internalType": "address",
          "name": "",
          "type": "address"
        }
      ],
      "stateMutability": "view",
      "type": "function"
    },
    {
      "inputs": [
        {
          "internalType": "address",
          "name": "from",
          "type": "address"
        },
        {
          "internalType": "address",
          "name": "to",
          "type": "address"
        },
        {
          "internalType": "uint256",
          "name": "tokenId",
          "type": "uint256"
        }
      ],
      "name": "safeTransferFrom",
      "outputs": [],
      "stateMutability": "nonpayable",
      "type": "function"
    },
    {
      "inputs": [
        {
          "internalType": "address",
          "name": "from",
          "type": "address"
        },
        {
          "internalType": "address",
          "name": "to",
          "type": "address"
        },
        {
          "internalType": "uint256",
          "name": "tokenId",
          "type": "uint256"
        },
        {
          "internalType": "bytes",
          "name": "data",
          "type": "bytes"
        }
      ],
      "name": "safeTransferFrom",
      "outputs": [],
      "stateMutability": "nonpayable",
      "type": "function"
    },
    {
      "inputs": [
        {
          "internalType": "address",
          "name": "operator",
          "type": "address"
        },
        {
          "internalType": "bool",
          "name": "approved",
          "type": "bool"
        }
      ],
      "name": "setApprovalForAll",
      "outputs": [],
      "stateMutability": "nonpayable",
      "type": "function"
    },
    {
      "inputs": [
        {
          "internalType": "bytes4",
          "name": "interfaceId",
          "type": "bytes4"
        }
      ],
      "name": "supportsInterface",
      "outputs": [
        {
          "internalType": "bool",
          "name": "",
          "type": "bool"
        }
      ],
      "stateMutability": "view",
      "type": "function"
    },
    {
      "inputs": [],
      "name": "symbol",
      "outputs": [
        {
          "internalType": "string",
          "name": "",
          "type": "string"
        }
      ],
      "stateMutability": "view",
      "type": "function"
    },
    {
      "inputs": [
        {
          "internalType": "uint256",
          "name": "tokenId",
          "type": "uint256"
        }
      ],
      "name": "tokenURI",
      "outputs": [
        {
          "internalType": "string",
          "name": "",
          "type": "string"
        }
      ],
      "stateMutability": "view",
      "type": "function"
    },
    {
      "inputs": [
        {
          "internalType": "uint256",
          "name": "tokenId",
          "type": "uint256"
        },
        {
          "internalType": "address",
          "name": "to",
          "type": "address"
        }
      ],
      "name": "transfer",
      "outputs": [],
      "stateMutability": "nonpayable",
      "type": "function"
    },
    {
      "inputs": [
        {
          "internalType": "address",
          "name": "from",
          "type": "address"
        },
        {
          "internalType": "address",
          "name": "to",
          "type": "address"
        },
        {
          "internalType": "uint256",
          "name": "tokenId",
          "type": "uint256"
        }
      ],
      "name": "transferFrom",
      "outputs": [],
      "stateMutability": "nonpayable",
      "type": "function"
    }
  ],
  "bytecode": "0x608060405234801562000010575f80fd5b506040516200264c3803806200264c8339818101604052810190620000369190620001e9565b8081815f90816200004891906200046f565b5080600190816200005a91906200046f565b5050505062000553565b5f604051905090565b5f80fd5b5f80fd5b5f80fd5b5f80fd5b5f601f19601f8301169050919050565b7f4e487b71000000000000000000000000000000000000000000000000000000005f52604160045260245ffd5b620000c5826200007d565b810181811067ffffffffffffffff82111715620000e757620000e66200008d565b5b80604052505050565b5f620000fb62000064565b9050620001098282620000ba565b919050565b5f67ffffffffffffffff8211156200012b576200012a6200008d565b5b62000136826200007d565b9050602081019050919050565b5f5b838110156200016257808201518184015260208101905062000145565b5f8484015250505050565b5f620001836200017d846200010e565b620000f0565b905082815260208101848484011115620001a257620001a162000079565b5b620001af84828562000143565b509392505050565b5f82601f830112620001ce57620001cd62000075565b5b8151620001e08482602086016200016d565b91505092915050565b5f602082840312156200020157620002006200006d565b5b5f82015167ffffffffffffffff81111562000221576200022062000071565b5b6200022f84828501620001b7565b91505092915050565b5f81519050919050565b7f4e487b71000000000000000000000000000000000000000000000000000000005f52602260045260245ffd5b5f60028204905060018216806200028757607f821691505b6020821081036200029d576200029c62000242565b5b50919050565b5f819050815f5260205f209050919050565b5f6020601f8301049050919050565b5f82821b905092915050565b5f60088302620003017fffffffffffffffffffffffffffffffffffffffffffffffffffffffffffffffff82620002c4565b6200030d8683620002c4565b95508019841693508086168417925050509392505050565b5f819050919050565b5f819050919050565b5f62000357620003516200034b8462000325565b6200032e565b62000325565b9050919050565b5f819050919050565b620003728362000337565b6200038a62000381826200035e565b848454620002d0565b825550505050565b5f90565b620003a062000392565b620003ad81848462000367565b505050565b5b81811015620003d457620003c85f8262000396565b600181019050620003b3565b5050565b601f8211156200042357620003ed81620002a3565b620003f884620002b5565b8101602085101562000408578190505b620004206200041785620002b5565b830182620003b2565b50505b505050565b5f82821c905092915050565b5f620004455f198460080262000428565b1980831691505092915050565b5f6200045f838362000434565b9150826002028217905092915050565b6200047a8262000238565b67ffffffffffffffff8111156200049657620004956200008d565b5b620004a282546200026f565b620004af828285620003d8565b5f60209050601f831160018114620004e5575f8415620004d0578287015190505b620004dc858262000452565b8655506200054b565b601f198416620004f586620002a3565b5f5b828110156200051e57848901518255600182019150602085019450602081019050620004f7565b868310156200053e57848901516200053a601f89168262000434565b8355505b6001600288020188555050505b505050505050565b6120eb80620005615f395ff3fe608060405234801561000f575f80fd5b50600436106100e8575f3560e01c806370a082311161008a578063b7760c8f11610064578063b7760c8f14610258578063b88d4fde14610274578063c87b56dd14610290578063e985e9c5146102c0576100e8565b806370a08231146101ee57806395d89b411461021e578063a22cb4651461023c576100e8565b8063095ea7b3116100c6578063095ea7b31461016a57806323b872dd1461018657806342842e0e146101a25780636352211e146101be576100e8565b806301ffc9a7146100ec57806306fdde031461011c578063081812fc1461013a575b5f80fd5b610106600480360381019061010191906118d6565b6102f0565b604051610113919061191b565b60405180910390f35b610124610350565b60405161013191906119be565b60405180910390f35b610154600480360381019061014f9190611a11565b6103df565b6040516101619190611a7b565b60405180910390f35b610184600480360381019061017f9190611abe565b6103fa565b005b6101a0600480360381019061019b9190611afc565b610410565b005b6101bc60048036038101906101b79190611afc565b61050f565b005b6101d860048036038101906101d39190611a11565b61052e565b6040516101e59190611a7b565b60405180910390f35b61020860048036038101906102039190611b4c565b61053f565b6040516102159190611b86565b60405180910390f35b6102266105f5565b60405161023391906119be565b60405180910390f35b61025660048036038101906102519190611bc9565b610685565b005b610272600480360381019061026d9190611c07565b61069b565b005b61028e60048036038101906102899190611d71565b610774565b005b6102aa60048036038101906102a59190611a11565b610799565b6040516102b791906119be565b60405180910390f35b6102da60048036038101906102d59190611df1565b610815565b6040516102e7919061191b565b60405180910390f35b5f634906490660e01b7bffffffffffffffffffffffffffffffffffffffffffffffffffffffff1916827bffffffffffffffffffffffffffffffffffffffffffffffffffffffff191614806103495750610348826108a3565b5b9050919050565b60605f805461035e90611e5c565b80601f016020809104026020016040519081016040528092919081815260200182805461038a90611e5c565b80156103d55780601f106103ac576101008083540402835291602001916103d5565b820191905f5260205f20905b8154815290600101906020018083116103b857829003601f168201915b5050505050905090565b5f6103e982610984565b506103f382610a0a565b9050919050565b61040c8282610407610a43565b610a4a565b5050565b5f73ffffffffffffffffffffffffffffffffffffffff168273ffffffffffffffffffffffffffffffffffffffff1603610480575f6040517f64a0ae920000000000000000000000000000000000000000000000000000000081526004016104779190611a7b565b60405180910390fd5b5f610493838361048e610a43565b610a5c565b90508373ffffffffffffffffffffffffffffffffffffffff168173ffffffffffffffffffffffffffffffffffffffff1614610509578382826040517f64283d7b00000000000000000000000000000000000000000000000000000000815260040161050093929190611e8c565b60405180910390fd5b50505050565b61052983838360405180602001604052805f815250610774565b505050565b5f61053882610984565b9050919050565b5f8073ffffffffffffffffffffffffffffffffffffffff168273ffffffffffffffffffffffffffffffffffffffff16036105b0575f6040517f89c62b640000000000000000000000000000000000000000000000000000000081526004016105a79190611a7b565b60405180910390fd5b60035f8373ffffffffffffffffffffffffffffffffffffffff1673ffffffffffffffffffffffffffffffffffffffff1681526020019081526020015f20549050919050565b60606001805461060490611e5c565b80601f016020809104026020016040519081016040528092919081815260200182805461063090611e5c565b801561067b5780601f106106525761010080835404028352916020019161067b565b820191905f5260205f20905b81548152906001019060200180831161065e57829003601f168201915b5050505050905090565b610697610690610a43565b8383610c67565b5050565b5f6106a58361052e565b90508073ffffffffffffffffffffffffffffffffffffffff163373ffffffffffffffffffffffffffffffffffffffff16148061071457503373ffffffffffffffffffffffffffffffffffffffff166106fc846103df565b73ffffffffffffffffffffffffffffffffffffffff16145b8061072557506107248133610815565b5b610764576040517f08c379a000000000000000000000000000000000000000000000000000000000815260040161075b90611f0b565b60405180910390fd5b61076f818385610e40565b505050565b61077f848484610410565b61079361078a610a43565b85858585610fa8565b50505050565b60606107a482610984565b505f6107ae611154565b90505f6107ba8461116a565b90505f8251036107ce578092505050610810565b5f815111156108025781816040516020016107ea929190611f63565b60405160208183030381529060405292505050610810565b61080b8461120b565b925050505b919050565b5f60055f8473ffffffffffffffffffffffffffffffffffffffff1673ffffffffffffffffffffffffffffffffffffffff1681526020019081526020015f205f8373ffffffffffffffffffffffffffffffffffffffff1673ffffffffffffffffffffffffffffffffffffffff1681526020019081526020015f205f9054906101000a900460ff16905092915050565b5f7f80ac58cd000000000000000000000000000000000000000000000000000000007bffffffffffffffffffffffffffffffffffffffffffffffffffffffff1916827bffffffffffffffffffffffffffffffffffffffffffffffffffffffff1916148061096d57507f5b5e139f000000000000000000000000000000000000000000000000000000007bffffffffffffffffffffffffffffffffffffffffffffffffffffffff1916827bffffffffffffffffffffffffffffffffffffffffffffffffffffffff1916145b8061097d575061097c82611271565b5b9050919050565b5f8061098f836112da565b90505f73ffffffffffffffffffffffffffffffffffffffff168173ffffffffffffffffffffffffffffffffffffffff1603610a0157826040517f7e2732890000000000000000000000000000000000000000000000000000000081526004016109f89190611b86565b60405180910390fd5b80915050919050565b5f60045f8381526020019081526020015f205f9054906101000a900473ffffffffffffffffffffffffffffffffffffffff169050919050565b5f33905090565b610a578383836001611313565b505050565b5f80610a67846112da565b90505f73ffffffffffffffffffffffffffffffffffffffff168373ffffffffffffffffffffffffffffffffffffffff1614610aa857610aa78184866114d2565b5b5f73ffffffffffffffffffffffffffffffffffffffff168173ffffffffffffffffffffffffffffffffffffffff1614610b3357610ae75f855f80611313565b600160035f8373ffffffffffffffffffffffffffffffffffffffff1673ffffffffffffffffffffffffffffffffffffffff1681526020019081526020015f205f82825403925050819055505b5f73ffffffffffffffffffffffffffffffffffffffff168573ffffffffffffffffffffffffffffffffffffffff1614610bb257600160035f8773ffffffffffffffffffffffffffffffffffffffff1673ffffffffffffffffffffffffffffffffffffffff1681526020019081526020015f205f82825401925050819055505b8460025f8681526020019081526020015f205f6101000a81548173ffffffffffffffffffffffffffffffffffffffff021916908373ffffffffffffffffffffffffffffffffffffffff160217905550838573ffffffffffffffffffffffffffffffffffffffff168273ffffffffffffffffffffffffffffffffffffffff167fddf252ad1be2c89b69c2b068fc378daa952ba7f163c4a11628f55a4df523b3ef60405160405180910390a4809150509392505050565b5f73ffffffffffffffffffffffffffffffffffffffff168373ffffffffffffffffffffffffffffffffffffffff1603610cd7575f6040517fa9fbf51f000000000000000000000000000000000000000000000000000000008152600401610cce9190611a7b565b60405180910390fd5b5f73ffffffffffffffffffffffffffffffffffffffff168273ffffffffffffffffffffffffffffffffffffffff1603610d4757816040517f5b08ba18000000000000000000000000000000000000000000000000000000008152600401610d3e9190611a7b565b60405180910390fd5b8060055f8573ffffffffffffffffffffffffffffffffffffffff1673ffffffffffffffffffffffffffffffffffffffff1681526020019081526020015f205f8473ffffffffffffffffffffffffffffffffffffffff1673ffffffffffffffffffffffffffffffffffffffff1681526020019081526020015f205f6101000a81548160ff0219169083151502179055508173ffffffffffffffffffffffffffffffffffffffff168373ffffffffffffffffffffffffffffffffffffffff167f17307eab39ab6107e8899845ad3d59bd9653f200f220920489ca2b5937696c3183604051610e33919061191b565b60405180910390a3505050565b5f73ffffffffffffffffffffffffffffffffffffffff168273ffffffffffffffffffffffffffffffffffffffff1603610eb0575f6040517f64a0ae92000000000000000000000000000000000000000000000000000000008152600401610ea79190611a7b565b60405180910390fd5b5f610ebc83835f610a5c565b90505f73ffffffffffffffffffffffffffffffffffffffff168173ffffffffffffffffffffffffffffffffffffffff1603610f2e57816040517f7e273289000000000000000000000000000000000000000000000000000000008152600401610f259190611b86565b60405180910390fd5b8373ffffffffffffffffffffffffffffffffffffffff168173ffffffffffffffffffffffffffffffffffffffff1614610fa2578382826040517f64283d7b000000000000000000000000000000000000000000000000000000008152600401610f9993929190611e8c565b60405180910390fd5b50505050565b5f8373ffffffffffffffffffffffffffffffffffffffff163b111561114d578273ffffffffffffffffffffffffffffffffffffffff1663150b7a02868685856040518563ffffffff1660e01b81526004016110069493929190611fd8565b6020604051808303815f875af192505050801561104157506040513d601f19601f8201168201806040525081019061103e9190612036565b60015b6110c2573d805f811461106f576040519150601f19603f3d011682016040523d82523d5f602084013e611074565b606091505b505f8151036110ba57836040517f64a0ae920000000000000000000000000000000000000000000000000000000081526004016110b19190611a7b565b60405180910390fd5b805160208201fd5b63150b7a0260e01b7bffffffffffffffffffffffffffffffffffffffffffffffffffffffff1916817bffffffffffffffffffffffffffffffffffffffffffffffffffffffff19161461114b57836040517f64a0ae920000000000000000000000000000000000000000000000000000000081526004016111429190611a7b565b60405180910390fd5b505b5050505050565b606060405180602001604052805f815250905090565b606060065f8381526020019081526020015f20805461118890611e5c565b80601f01602080910402602001604051908101604052809291908181526020018280546111b490611e5c565b80156111ff5780601f106111d6576101008083540402835291602001916111ff565b820191905f5260205f20905b8154815290600101906020018083116111e257829003601f168201915b50505050509050919050565b606061121682610984565b505f611220611154565b90505f81511161123e5760405180602001604052805f815250611269565b8061124884611595565b604051602001611259929190611f63565b6040516020818303038152906040525b915050919050565b5f7f01ffc9a7000000000000000000000000000000000000000000000000000000007bffffffffffffffffffffffffffffffffffffffffffffffffffffffff1916827bffffffffffffffffffffffffffffffffffffffffffffffffffffffff1916149050919050565b5f60025f8381526020019081526020015f205f9054906101000a900473ffffffffffffffffffffffffffffffffffffffff169050919050565b808061134b57505f73ffffffffffffffffffffffffffffffffffffffff168273ffffffffffffffffffffffffffffffffffffffff1614155b1561147d575f61135a84610984565b90505f73ffffffffffffffffffffffffffffffffffffffff168373ffffffffffffffffffffffffffffffffffffffff16141580156113c457508273ffffffffffffffffffffffffffffffffffffffff168173ffffffffffffffffffffffffffffffffffffffff1614155b80156113d757506113d58184610815565b155b1561141957826040517fa9fbf51f0000000000000000000000000000000000000000000000000000000081526004016114109190611a7b565b60405180910390fd5b811561147b57838573ffffffffffffffffffffffffffffffffffffffff168273ffffffffffffffffffffffffffffffffffffffff167f8c5be1e5ebec7d5bd14f71427d1e84f3dd0314c0f7b2291e5b200ac8c7c3b92560405160405180910390a45b505b8360045f8581526020019081526020015f205f6101000a81548173ffffffffffffffffffffffffffffffffffffffff021916908373ffffffffffffffffffffffffffffffffffffffff16021790555050505050565b6114dd83838361165f565b611590575f73ffffffffffffffffffffffffffffffffffffffff168373ffffffffffffffffffffffffffffffffffffffff160361155157806040517f7e2732890000000000000000000000000000000000000000000000000000000081526004016115489190611b86565b60405180910390fd5b81816040517f177e802f000000000000000000000000000000000000000000000000000000008152600401611587929190612061565b60405180910390fd5b505050565b60605f60016115a38461171f565b0190505f8167ffffffffffffffff8111156115c1576115c0611c4d565b5b6040519080825280601f01601f1916602001820160405280156115f35781602001600182028036833780820191505090505b5090505f82602083010190505b600115611654578080600190039150507f3031323334353637383961626364656600000000000000000000000000000000600a86061a8153600a858161164957611648612088565b5b0494505f8503611600575b819350505050919050565b5f8073ffffffffffffffffffffffffffffffffffffffff168373ffffffffffffffffffffffffffffffffffffffff161415801561171657508273ffffffffffffffffffffffffffffffffffffffff168473ffffffffffffffffffffffffffffffffffffffff1614806116d757506116d68484610815565b5b8061171557508273ffffffffffffffffffffffffffffffffffffffff166116fd83610a0a565b73ffffffffffffffffffffffffffffffffffffffff16145b5b90509392505050565b5f805f90507a184f03e93ff9f4daa797ed6e38ed64bf6a1f010000000000000000831061177b577a184f03e93ff9f4daa797ed6e38ed64bf6a1f010000000000000000838161177157611770612088565b5b0492506040810190505b6d04ee2d6d415b85acef810000000083106117b8576d04ee2d6d415b85acef810000000083816117ae576117ad612088565b5b0492506020810190505b662386f26fc1000083106117e757662386f26fc1000083816117dd576117dc612088565b5b0492506010810190505b6305f5e1008310611810576305f5e100838161180657611805612088565b5b0492506008810190505b612710831061183557612710838161182b5761182a612088565b5b0492506004810190505b60648310611858576064838161184e5761184d612088565b5b0492506002810190505b600a8310611867576001810190505b80915050919050565b5f604051905090565b5f80fd5b5f80fd5b5f7fffffffff0000000000000000000000000000000000000000000000000000000082169050919050565b6118b581611881565b81146118bf575f80fd5b50565b5f813590506118d0816118ac565b92915050565b5f602082840312156118eb576118ea611879565b5b5f6118f8848285016118c2565b91505092915050565b5f8115159050919050565b61191581611901565b82525050565b5f60208201905061192e5f83018461190c565b92915050565b5f81519050919050565b5f82825260208201905092915050565b5f5b8381101561196b578082015181840152602081019050611950565b5f8484015250505050565b5f601f19601f8301169050919050565b5f61199082611934565b61199a818561193e565b93506119aa81856020860161194e565b6119b381611976565b840191505092915050565b5f6020820190508181035f8301526119d68184611986565b905092915050565b5f819050919050565b6119f0816119de565b81146119fa575f80fd5b50565b5f81359050611a0b816119e7565b92915050565b5f60208284031215611a2657611a25611879565b5b5f611a33848285016119fd565b91505092915050565b5f73ffffffffffffffffffffffffffffffffffffffff82169050919050565b5f611a6582611a3c565b9050919050565b611a7581611a5b565b82525050565b5f602082019050611a8e5f830184611a6c565b92915050565b611a9d81611a5b565b8114611aa7575f80fd5b50565b5f81359050611ab881611a94565b92915050565b5f8060408385031215611ad457611ad3611879565b5b5f611ae185828601611aaa565b9250506020611af2858286016119fd565b9150509250929050565b5f805f60608486031215611b1357611b12611879565b5b5f611b2086828701611aaa565b9350506020611b3186828701611aaa565b9250506040611b42868287016119fd565b9150509250925092565b5f60208284031215611b6157611b60611879565b5b5f611b6e84828501611aaa565b91505092915050565b611b80816119de565b82525050565b5f602082019050611b995f830184611b77565b92915050565b611ba881611901565b8114611bb2575f80fd5b50565b5f81359050611bc381611b9f565b92915050565b5f8060408385031215611bdf57611bde611879565b5b5f611bec85828601611aaa565b9250506020611bfd85828601611bb5565b9150509250929050565b5f8060408385031215611c1d57611c1c611879565b5b5f611c2a858286016119fd565b9250506020611c3b85828601611aaa565b9150509250929050565b5f80fd5b5f80fd5b7f4e487b71000000000000000000000000000000000000000000000000000000005f52604160045260245ffd5b611c8382611976565b810181811067ffffffffffffffff82111715611ca257611ca1611c4d565b5b80604052505050565b5f611cb4611870565b9050611cc08282611c7a565b919050565b5f67ffffffffffffffff821115611cdf57611cde611c4d565b5b611ce882611976565b9050602081019050919050565b828183375f83830152505050565b5f611d15611d1084611cc5565b611cab565b905082815260208101848484011115611d3157611d30611c49565b5b611d3c848285611cf5565b509392505050565b5f82601f830112611d5857611d57611c45565b5b8135611d68848260208601611d03565b91505092915050565b5f805f8060808587031215611d8957611d88611879565b5b5f611d9687828801611aaa565b9450506020611da787828801611aaa565b9350506040611db8878288016119fd565b925050606085013567ffffffffffffffff811115611dd957611dd861187d565b5b611de587828801611d44565b91505092959194509250565b5f8060408385031215611e0757611e06611879565b5b5f611e1485828601611aaa565b9250506020611e2585828601611aaa565b9150509250929050565b7f4e487b71000000000000000000000000000000000000000000000000000000005f52602260045260245ffd5b5f6002820490506001821680611e7357607f821691505b602082108103611e8657611e85611e2f565b5b50919050565b5f606082019050611e9f5f830186611a6c565b611eac6020830185611b77565b611eb96040830184611a6c565b949350505050565b7f4e6f74206f776e6572206e6f7220617070726f766564000000000000000000005f82015250565b5f611ef560168361193e565b9150611f0082611ec1565b602082019050919050565b5f6020820190508181035f830152611f2281611ee9565b9050919050565b5f81905092915050565b5f611f3d82611934565b611f478185611f29565b9350611f5781856020860161194e565b80840191505092915050565b5f611f6e8285611f33565b9150611f7a8284611f33565b91508190509392505050565b5f81519050919050565b5f82825260208201905092915050565b5f611faa82611f86565b611fb48185611f90565b9350611fc481856020860161194e565b611fcd81611976565b840191505092915050565b5f608082019050611feb5f830187611a6c565b611ff86020830186611a6c565b6120056040830185611b77565b81810360608301526120178184611fa0565b905095945050505050565b5f81519050612030816118ac565b92915050565b5f6020828403121561204b5761204a611879565b5b5f61205884828501612022565b91505092915050565b5f6040820190506120745f830185611a6c565b6120816020830184611b77565b9392505050565b7f4e487b71000000000000000000000000000000000000000000000000000000005f52601260045260245ffdfea26469706673582212203713f02ca19c99cb57043431b61987587b0205e73b462a959877e9807bd1eabc64736f6c63430008180033",
  "linkReferences": {},
  "deployedLinkReferences": {}
}