{
  "_format": "hh-sol-artifact-1",
  "contractName": "NappingCats",
  "sourceName": "contracts/NappingCats.sol",
  "abi": [
    {
      "inputs": [
        {
          "internalType": "uint256",
          "name": "_initialBasePrice",
          "type": "uint256"
        }
      ],
      "stateMutability": "nonpayable",
      "type": "constructor"
    },
    {
      "inputs": [
        {
          "internalType": "address",
          "name": "sender",
          "type": "address"
        },
        {
          "internalType": "uint256",
          "name": "tokenId",
          "type": "uint256"
        },
        {
          "internalType": "address",
          "name": "owner",
          "type": "address"
        }
      ],
      "name": "ERC721IncorrectOwner",
      "type": "error"
    },
    {
      "inputs": [
        {
          "internalType": "address",
          "name": "operator",
          "type": "address"
        },
        {
          "internalType": "uint256",
          "name": "tokenId",
          "type": "uint256"
        }
      ],
      "name": "ERC721InsufficientApproval",
      "type": "error"
    },
    {
      "inputs": [
        {
          "internalType": "address",
          "name": "approver",
          "type": "address"
        }
      ],
      "name": "ERC721InvalidApprover",
      "type": "error"
    },
    {
      "inputs": [
        {
          "internalType": "address",
          "name": "operator",
          "type": "address"
        }
      ],
      "name": "ERC721InvalidOperator",
      "type": "error"
    },
    {
      "inputs": [
        {
          "internalType": "address",
          "name": "owner",
          "type": "address"
        }
      ],
      "name": "ERC721InvalidOwner",
      "type": "error"
    },
    {
      "inputs": [
        {
          "internalType": "address",
          "name": "receiver",
          "type": "address"
        }
      ],
      "name": "ERC721InvalidReceiver",
      "type": "error"
    },
    {
      "inputs": [
        {
          "internalType": "address",
          "name": "sender",
          "type": "address"
        }
      ],
      "name": "ERC721InvalidSender",
      "type": "error"
    },
    {
      "inputs": [
        {
          "internalType": "uint256",
          "name": "tokenId",
          "type": "uint256"
        }
      ],
      "name": "ERC721NonexistentToken",
      "type": "error"
    },
    {
      "anonymous": false,
      "inputs": [
        {
          "indexed": true,
          "internalType": "address",
          "name": "owner",
          "type": "address"
        },
        {
          "indexed": true,
          "internalType": "address",
          "name": "approved",
          "type": "address"
        },
        {
          "indexed": true,
          "internalType": "uint256",
          "name": "tokenId",
          "type": "uint256"
        }
      ],
      "name": "Approval",
      "type": "event"
    },
    {
      "anonymous": false,
      "inputs": [
        {
          "indexed": true,
          "internalType": "address",
          "name": "owner",
          "type": "address"
        },
        {
          "indexed": true,
          "internalType": "address",
          "name": "operator",
          "type": "address"
        },
        {
          "indexed": false,
          "internalType": "bool",
          "name": "approved",
          "type": "bool"
        }
      ],
      "name": "ApprovalForAll",
      "type": "event"
    },
    {
      "anonymous": false,
      "inputs": [
        {
          "indexed": false,
          "internalType": "uint256",
          "name": "_fromTokenId",
          "type": "uint256"
        },
        {
          "indexed": false,
          "internalType": "uint256",
          "name": "_toTokenId",
          "type": "uint256"
        }
      ],
      "name": "BatchMetadataUpdate",
      "type": "event"
    },
    {
      "anonymous": false,
      "inputs": [
        {
          "indexed": false,
          "internalType": "uint256",
          "name": "_tokenId",
          "type": "uint256"
        }
      ],
      "name": "MetadataUpdate",
      "type": "event"
    },
    {
      "anonymous": false,
      "inputs": [
        {
          "indexed": true,
          "internalType": "address",
          "name": "from",
          "type": "address"
        },
        {
          "indexed": true,
          "internalType": "address",
          "name": "to",
          "type": "address"
        },
        {
          "indexed": true,
          "internalType": "uint256",
          "name": "tokenId",
          "type": "uint256"
        }
      ],
      "name": "Transfer",
      "type": "event"
    },
    {
      "inputs": [],
      "name": "AUCTION_DURATION",
      "outputs": [
        {
          "internalType": "uint256",
          "name": "",
          "type": "uint256"
        }
      ],
      "stateMutability": "view",
      "type": "function"
    },
    {
      "inputs": [],
      "name": "AUCTION_MULTIPLIER",
      "outputs": [
        {
          "internalType": "uint256",
          "name": "",
          "type": "uint256"
        }
      ],
      "stateMutability": "view",
      "type": "function"
    },
    {
      "inputs": [
        {
          "internalType": "address",
          "name": "to",
          "type": "address"
        },
        {
          "internalType": "uint256",
          "name": "tokenId",
          "type": "uint256"
        }
      ],
      "name": "approve",
      "outputs": [],
      "stateMutability": "nonpayable",
      "type": "function"
    },
    {
      "inputs": [],
      "name": "auctionStartTime",
      "outputs": [
        {
          "internalType": "uint256",
          "name": "",
          "type": "uint256"
        }
      ],
      "stateMutability": "view",
      "type": "function"
    },
    {
      "inputs": [
        {
          "internalType": "address",
          "name": "owner",
          "type": "address"
        }
      ],
      "name": "balanceOf",
      "outputs": [
        {
          "internalType": "uint256",
          "name": "",
          "type": "uint256"
        }
      ],
      "stateMutability": "view",
      "type": "function"
    },
    {
      "inputs": [
        {
          "internalType": "uint256",
          "name": "tokenId",
          "type": "uint256"
        }
      ],
      "name": "buyToken",
      "outputs": [],
      "stateMutability": "payable",
      "type": "function"
    },
    {
      "inputs": [
        {
          "internalType": "uint256",
          "name": "tokenId",
          "type": "uint256"
        }
      ],
      "name": "delistToken",
      "outputs": [],
      "stateMutability": "nonpayable",
      "type": "function"
    },
    {
      "inputs": [
        {
          "internalType": "uint256",
          "name": "tokenId",
          "type": "uint256"
        }
      ],
      "name": "getApproved",
      "outputs": [
        {
          "internalType": "address",
          "name": "",
          "type": "address"
        }
      ],
      "stateMutability": "view",
      "type": "function"
    },
    {
      "inputs": [],
      "name": "getCurrentInitialPrice",
      "outputs": [
        {
          "internalType": "uint256",
          "name": "",
          "type": "uint256"
        }
      ],
      "stateMutability": "view",
      "type": "function"
    },
    {
      "inputs": [],
      "name": "initialBasePrice",
      "outputs": [
        {
          "internalType": "uint256",
          "name": "",
          "type": "uint256"
        }
      ],
      "stateMutability": "view",
      "type": "function"
    },
    {
      "inputs": [
        {
          "internalType": "address",
          "name": "owner",
          "type": "address"
        },
        {
          "internalType": "address",
          "name": "operator",
          "type": "address"
        }
      ],
      "name": "isApprovedForAll",
      "outputs": [
        {
          "internalType": "bool",
          "name": "",
          "type": "bool"
        }
      ],
      "stateMutability": "view",
      "type": "function"
    },
    {
      "inputs": [
        {
          "internalType": "uint256",
          "name": "tokenId",
          "type": "uint256"
        },
        {
          "internalType": "uint256",
          "name": "price",
          "type": "uint256"
        }
      ],
      "name": "listToken",
      "outputs": [],
      "stateMutability": "nonpayable",
      "type": "function"
    },
    {
      "inputs": [
        {
          "internalType": "uint256",
          "name": "",
          "type": "uint256"
        }
      ],
      "name": "listings",
      "outputs": [
        {
          "internalType": "uint256",
          "name": "price",
          "type": "uint256"
        },
        {
          "internalType": "bool",
          "name": "isListed",
          "type": "bool"
        }
      ],
      "stateMutability": "view",
      "type": "function"
    },
    {
      "inputs": [],
      "name": "name",
      "outputs": [
        {
          "internalType": "string",
          "name": "",
          "type": "string"
        }
      ],
      "stateMutability": "view",
      "type": "function"
    },
    {
      "inputs": [
        {
          "internalType": "uint256",
          "name": "tokenId",
          "type": "uint256"
        }
      ],
      "name": "ownerOf",
      "outputs": [
        {
          "internalType": "address",
          "name": "",
          "type": "address"
        }
      ],
      "stateMutability": "view",
      "type": "function"
    },
    {
      "inputs": [
        {
          "internalType": "address",
          "name": "from",
          "type": "address"
        },
        {
          "internalType": "address",
          "name": "to",
          "type": "address"
        },
        {
          "internalType": "uint256",
          "name": "tokenId",
          "type": "uint256"
        }
      ],
      "name": "safeTransferFrom",
      "outputs": [],
      "stateMutability": "nonpayable",
      "type": "function"
    },
    {
      "inputs": [
        {
          "internalType": "address",
          "name": "from",
          "type": "address"
        },
        {
          "internalType": "address",
          "name": "to",
          "type": "address"
        },
        {
          "internalType": "uint256",
          "name": "tokenId",
          "type": "uint256"
        },
        {
          "internalType": "bytes",
          "name": "data",
          "type": "bytes"
        }
      ],
      "name": "safeTransferFrom",
      "outputs": [],
      "stateMutability": "nonpayable",
      "type": "function"
    },
    {
      "inputs": [
        {
          "internalType": "address",
          "name": "operator",
          "type": "address"
        },
        {
          "internalType": "bool",
          "name": "approved",
          "type": "bool"
        }
      ],
      "name": "setApprovalForAll",
      "outputs": [],
      "stateMutability": "nonpayable",
      "type": "function"
    },
    {
      "inputs": [
        {
          "internalType": "bytes4",
          "name": "interfaceId",
          "type": "bytes4"
        }
      ],
      "name": "supportsInterface",
      "outputs": [
        {
          "internalType": "bool",
          "name": "",
          "type": "bool"
        }
      ],
      "stateMutability": "view",
      "type": "function"
    },
    {
      "inputs": [],
      "name": "symbol",
      "outputs": [
        {
          "internalType": "string",
          "name": "",
          "type": "string"
        }
      ],
      "stateMutability": "view",
      "type": "function"
    },
    {
      "inputs": [
        {
          "internalType": "uint256",
          "name": "tokenId",
          "type": "uint256"
        }
      ],
      "name": "tokenURI",
      "outputs": [
        {
          "internalType": "string",
          "name": "",
          "type": "string"
        }
      ],
      "stateMutability": "view",
      "type": "function"
    },
    {
      "inputs": [
        {
          "internalType": "uint256",
          "name": "tokenId",
          "type": "uint256"
        },
        {
          "internalType": "address",
          "name": "to",
          "type": "address"
        }
      ],
      "name": "transfer",
      "outputs": [],
      "stateMutability": "nonpayable",
      "type": "function"
    },
    {
      "inputs": [
        {
          "internalType": "address",
          "name": "from",
          "type": "address"
        },
        {
          "internalType": "address",
          "name": "to",
          "type": "address"
        },
        {
          "internalType": "uint256",
          "name": "tokenId",
          "type": "uint256"
        }
      ],
      "name": "transferFrom",
      "outputs": [],
      "stateMutability": "nonpayable",
      "type": "function"
    }
  ],
  "bytecode": "0x608060405234801562000010575f80fd5b50604051620039c0380380620039c08339818101604052810190620000369190620001e9565b6040518060400160405280600c81526020017f4e617070696e67204361747300000000000000000000000000000000000000008152508081815f90816200007e919062000474565b50806001908162000090919062000474565b5050505080600781905550426008819055506040518060400160405280600681526020017f302e6a736f6e0000000000000000000000000000000000000000000000000000815250600a5f8081526020019081526020015f209081620000f7919062000474565b506040518060400160405280600681526020017f312e6a736f6e0000000000000000000000000000000000000000000000000000815250600a5f600181526020019081526020015f2090816200014e919062000474565b506040518060400160405280600681526020017f322e6a736f6e0000000000000000000000000000000000000000000000000000815250600a5f600281526020019081526020015f209081620001a5919062000474565b505062000558565b5f80fd5b5f819050919050565b620001c581620001b1565b8114620001d0575f80fd5b50565b5f81519050620001e381620001ba565b92915050565b5f60208284031215620002015762000200620001ad565b5b5f6200021084828501620001d3565b91505092915050565b5f81519050919050565b7f4e487b71000000000000000000000000000000000000000000000000000000005f52604160045260245ffd5b7f4e487b71000000000000000000000000000000000000000000000000000000005f52602260045260245ffd5b5f60028204905060018216806200029557607f821691505b602082108103620002ab57620002aa62000250565b5b50919050565b5f819050815f5260205f209050919050565b5f6020601f8301049050919050565b5f82821b905092915050565b5f600883026200030f7fffffffffffffffffffffffffffffffffffffffffffffffffffffffffffffffff82620002d2565b6200031b8683620002d2565b95508019841693508086168417925050509392505050565b5f819050919050565b5f6200035c620003566200035084620001b1565b62000333565b620001b1565b9050919050565b5f819050919050565b62000377836200033c565b6200038f620003868262000363565b848454620002de565b825550505050565b5f90565b620003a562000397565b620003b28184846200036c565b505050565b5b81811015620003d957620003cd5f826200039b565b600181019050620003b8565b5050565b601f8211156200042857620003f281620002b1565b620003fd84620002c3565b810160208510156200040d578190505b620004256200041c85620002c3565b830182620003b7565b50505b505050565b5f82821c905092915050565b5f6200044a5f19846008026200042d565b1980831691505092915050565b5f62000464838362000439565b9150826002028217905092915050565b6200047f8262000219565b67ffffffffffffffff8111156200049b576200049a62000223565b5b620004a782546200027d565b620004b4828285620003dd565b5f60209050601f831160018114620004ea575f8415620004d5578287015190505b620004e1858262000457565b86555062000550565b601f198416620004fa86620002b1565b5f5b828110156200052357848901518255600182019150602085019450602081019050620004fc565b868310156200054357848901516200053f601f89168262000439565b8355505b6001600288020188555050505b505050505050565b61345a80620005665f395ff3fe60806040526004361061013f575f3560e01c806375c1631d116100b5578063b88d4fde1161006e578063b88d4fde1461043b578063bed659bc14610463578063c87b56dd1461048b578063de74e57b146104c7578063e985e9c514610504578063eb54f9ec146105405761013f565b806375c1631d1461034557806395d89b411461036d5780639fff0f6214610397578063a22cb465146103c1578063a271e525146103e9578063b7760c8f146104135761013f565b80632d296bf1116101075780632d296bf11461023557806342842e0e146102515780636352211e146102795780636da37526146102b557806370a08231146102df57806370e40e441461031b5761013f565b806301ffc9a71461014357806306fdde031461017f578063081812fc146101a9578063095ea7b3146101e557806323b872dd1461020d575b5f80fd5b34801561014e575f80fd5b50610169600480360381019061016491906124d6565b61056a565b604051610176919061251b565b60405180910390f35b34801561018a575f80fd5b506101936105ca565b6040516101a091906125be565b60405180910390f35b3480156101b4575f80fd5b506101cf60048036038101906101ca9190612611565b610659565b6040516101dc919061267b565b60405180910390f35b3480156101f0575f80fd5b5061020b600480360381019061020691906126be565b610674565b005b348015610218575f80fd5b50610233600480360381019061022e91906126fc565b61068a565b005b61024f600480360381019061024a9190612611565b610789565b005b34801561025c575f80fd5b50610277600480360381019061027291906126fc565b610be0565b005b348015610284575f80fd5b5061029f600480360381019061029a9190612611565b610bff565b6040516102ac919061267b565b60405180910390f35b3480156102c0575f80fd5b506102c9610c10565b6040516102d6919061275b565b60405180910390f35b3480156102ea575f80fd5b5061030560048036038101906103009190612774565b610c88565b604051610312919061275b565b60405180910390f35b348015610326575f80fd5b5061032f610d3e565b60405161033c919061275b565b60405180910390f35b348015610350575f80fd5b5061036b6004803603810190610366919061279f565b610d43565b005b348015610378575f80fd5b50610381610e52565b60405161038e91906125be565b60405180910390f35b3480156103a2575f80fd5b506103ab610ee2565b6040516103b8919061275b565b60405180910390f35b3480156103cc575f80fd5b506103e760048036038101906103e29190612807565b610ee8565b005b3480156103f4575f80fd5b506103fd610efe565b60405161040a919061275b565b60405180910390f35b34801561041e575f80fd5b5061043960048036038101906104349190612845565b610f05565b005b348015610446575f80fd5b50610461600480360381019061045c91906129af565b610fde565b005b34801561046e575f80fd5b5061048960048036038101906104849190612611565b611003565b005b348015610496575f80fd5b506104b160048036038101906104ac9190612611565b6110ce565b6040516104be91906125be565b60405180910390f35b3480156104d2575f80fd5b506104ed60048036038101906104e89190612611565b61121a565b6040516104fb929190612a2f565b60405180910390f35b34801561050f575f80fd5b5061052a60048036038101906105259190612a56565b611246565b604051610537919061251b565b60405180910390f35b34801561054b575f80fd5b506105546112d4565b604051610561919061275b565b60405180910390f35b5f634906490660e01b7bffffffffffffffffffffffffffffffffffffffffffffffffffffffff1916827bffffffffffffffffffffffffffffffffffffffffffffffffffffffff191614806105c357506105c2826112da565b5b9050919050565b60605f80546105d890612ac1565b80601f016020809104026020016040519081016040528092919081815260200182805461060490612ac1565b801561064f5780601f106106265761010080835404028352916020019161064f565b820191905f5260205f20905b81548152906001019060200180831161063257829003601f168201915b5050505050905090565b5f610663826113bb565b5061066d82611441565b9050919050565b610686828261068161147a565b611481565b5050565b5f73ffffffffffffffffffffffffffffffffffffffff168273ffffffffffffffffffffffffffffffffffffffff16036106fa575f6040517f64a0ae920000000000000000000000000000000000000000000000000000000081526004016106f1919061267b565b60405180910390fd5b5f61070d838361070861147a565b611493565b90508373ffffffffffffffffffffffffffffffffffffffff168173ffffffffffffffffffffffffffffffffffffffff1614610783578382826040517f64283d7b00000000000000000000000000000000000000000000000000000000815260040161077a93929190612af1565b60405180910390fd5b50505050565b5f6107938261169e565b90505f73ffffffffffffffffffffffffffffffffffffffff168173ffffffffffffffffffffffffffffffffffffffff1603610962576003821061080b576040517f08c379a000000000000000000000000000000000000000000000000000000000815260040161080290612b70565b60405180910390fd5b5f610814610c10565b905080341015610859576040517f08c379a000000000000000000000000000000000000000000000000000000000815260040161085090612bfe565b60405180910390fd5b61086333846116d7565b61090483600a5f8681526020019081526020015f20805461088390612ac1565b80601f01602080910402602001604051908101604052809291908181526020018280546108af90612ac1565b80156108fa5780601f106108d1576101008083540402835291602001916108fa565b820191905f5260205f20905b8154815290600101906020018083116108dd57829003601f168201915b50505050506117ca565b8034111561095c573373ffffffffffffffffffffffffffffffffffffffff166108fc82346109329190612c49565b90811502906040515f60405180830381858888f1935050505015801561095a573d5f803e3d5ffd5b505b50610bdc565b5f60095f8481526020019081526020015f206040518060400160405290815f8201548152602001600182015f9054906101000a900460ff161515151581525050905080602001516109e8576040517f08c379a00000000000000000000000000000000000000000000000000000000081526004016109df90612cc6565b60405180910390fd5b805f0151341015610a2e576040517f08c379a0000000000000000000000000000000000000000000000000000000008152600401610a2590612d54565b60405180910390fd5b3373ffffffffffffffffffffffffffffffffffffffff168273ffffffffffffffffffffffffffffffffffffffff1603610a9c576040517f08c379a0000000000000000000000000000000000000000000000000000000008152600401610a9390612dbc565b60405180910390fd5b5f8273ffffffffffffffffffffffffffffffffffffffff16825f0151604051610ac490612e07565b5f6040518083038185875af1925050503d805f8114610afe576040519150601f19603f3d011682016040523d82523d5f602084013e610b03565b606091505b5050905080610b10575f80fd5b815f0151341115610ba1575f825f015134610b2b9190612c49565b90505f3373ffffffffffffffffffffffffffffffffffffffff1682604051610b5290612e07565b5f6040518083038185875af1925050503d805f8114610b8c576040519150601f19603f3d011682016040523d82523d5f602084013e610b91565b606091505b5050905080610b9e575f80fd5b50505b610bac833386611824565b60095f8581526020019081526020015f205f8082015f9055600182015f6101000a81549060ff0219169055505050505b5050565b610bfa83838360405180602001604052805f815250610fde565b505050565b5f610c09826113bb565b9050919050565b5f8060085442610c209190612c49565b9050620151808110610c3757600754915050610c85565b5f6064600754610c479190612e1b565b90505f620151808360075484610c5d9190612c49565b610c679190612e1b565b610c719190612e89565b90508082610c7f9190612c49565b93505050505b90565b5f8073ffffffffffffffffffffffffffffffffffffffff168273ffffffffffffffffffffffffffffffffffffffff1603610cf9575f6040517f89c62b64000000000000000000000000000000000000000000000000000000008152600401610cf0919061267b565b60405180910390fd5b60035f8373ffffffffffffffffffffffffffffffffffffffff1673ffffffffffffffffffffffffffffffffffffffff1681526020019081526020015f20549050919050565b606481565b3373ffffffffffffffffffffffffffffffffffffffff16610d6383610bff565b73ffffffffffffffffffffffffffffffffffffffff1614610db9576040517f08c379a0000000000000000000000000000000000000000000000000000000008152600401610db090612f03565b60405180910390fd5b5f8111610dfb576040517f08c379a0000000000000000000000000000000000000000000000000000000008152600401610df290612f6b565b60405180910390fd5b60405180604001604052808281526020016001151581525060095f8481526020019081526020015f205f820151815f01556020820151816001015f6101000a81548160ff0219169083151502179055509050505050565b606060018054610e6190612ac1565b80601f0160208091040260200160405190810160405280929190818152602001828054610e8d90612ac1565b8015610ed85780601f10610eaf57610100808354040283529160200191610ed8565b820191905f5260205f20905b815481529060010190602001808311610ebb57829003601f168201915b5050505050905090565b60075481565b610efa610ef361147a565b838361198c565b5050565b6201518081565b5f610f0f83610bff565b90508073ffffffffffffffffffffffffffffffffffffffff163373ffffffffffffffffffffffffffffffffffffffff161480610f7e57503373ffffffffffffffffffffffffffffffffffffffff16610f6684610659565b73ffffffffffffffffffffffffffffffffffffffff16145b80610f8f5750610f8e8133611246565b5b610fce576040517f08c379a0000000000000000000000000000000000000000000000000000000008152600401610fc590612fd3565b60405180910390fd5b610fd9818385611824565b505050565b610fe984848461068a565b610ffd610ff461147a565b85858585611b65565b50505050565b3373ffffffffffffffffffffffffffffffffffffffff1661102382610bff565b73ffffffffffffffffffffffffffffffffffffffff1614611079576040517f08c379a000000000000000000000000000000000000000000000000000000000815260040161107090612f03565b60405180910390fd5b60405180604001604052805f81526020015f151581525060095f8381526020019081526020015f205f820151815f01556020820151816001015f6101000a81548160ff02191690831515021790555090505050565b60605f73ffffffffffffffffffffffffffffffffffffffff166110f08361169e565b73ffffffffffffffffffffffffffffffffffffffff1603611209575f600a5f8481526020019081526020015f20805461112890612ac1565b90501161116a576040517f08c379a00000000000000000000000000000000000000000000000000000000081526004016111619061303b565b60405180910390fd5b600a5f8381526020019081526020015f20805461118690612ac1565b80601f01602080910402602001604051908101604052809291908181526020018280546111b290612ac1565b80156111fd5780601f106111d4576101008083540402835291602001916111fd565b820191905f5260205f20905b8154815290600101906020018083116111e057829003601f168201915b50505050509050611215565b61121282611d11565b90505b919050565b6009602052805f5260405f205f91509050805f015490806001015f9054906101000a900460ff16905082565b5f60055f8473ffffffffffffffffffffffffffffffffffffffff1673ffffffffffffffffffffffffffffffffffffffff1681526020019081526020015f205f8373ffffffffffffffffffffffffffffffffffffffff1673ffffffffffffffffffffffffffffffffffffffff1681526020019081526020015f205f9054906101000a900460ff16905092915050565b60085481565b5f7f80ac58cd000000000000000000000000000000000000000000000000000000007bffffffffffffffffffffffffffffffffffffffffffffffffffffffff1916827bffffffffffffffffffffffffffffffffffffffffffffffffffffffff191614806113a457507f5b5e139f000000000000000000000000000000000000000000000000000000007bffffffffffffffffffffffffffffffffffffffffffffffffffffffff1916827bffffffffffffffffffffffffffffffffffffffffffffffffffffffff1916145b806113b457506113b382611d8d565b5b9050919050565b5f806113c68361169e565b90505f73ffffffffffffffffffffffffffffffffffffffff168173ffffffffffffffffffffffffffffffffffffffff160361143857826040517f7e27328900000000000000000000000000000000000000000000000000000000815260040161142f919061275b565b60405180910390fd5b80915050919050565b5f60045f8381526020019081526020015f205f9054906101000a900473ffffffffffffffffffffffffffffffffffffffff169050919050565b5f33905090565b61148e8383836001611df6565b505050565b5f8061149e8461169e565b90505f73ffffffffffffffffffffffffffffffffffffffff168373ffffffffffffffffffffffffffffffffffffffff16146114df576114de818486611fb5565b5b5f73ffffffffffffffffffffffffffffffffffffffff168173ffffffffffffffffffffffffffffffffffffffff161461156a5761151e5f855f80611df6565b600160035f8373ffffffffffffffffffffffffffffffffffffffff1673ffffffffffffffffffffffffffffffffffffffff1681526020019081526020015f205f82825403925050819055505b5f73ffffffffffffffffffffffffffffffffffffffff168573ffffffffffffffffffffffffffffffffffffffff16146115e957600160035f8773ffffffffffffffffffffffffffffffffffffffff1673ffffffffffffffffffffffffffffffffffffffff1681526020019081526020015f205f82825401925050819055505b8460025f8681526020019081526020015f205f6101000a81548173ffffffffffffffffffffffffffffffffffffffff021916908373ffffffffffffffffffffffffffffffffffffffff160217905550838573ffffffffffffffffffffffffffffffffffffffff168273ffffffffffffffffffffffffffffffffffffffff167fddf252ad1be2c89b69c2b068fc378daa952ba7f163c4a11628f55a4df523b3ef60405160405180910390a4809150509392505050565b5f60025f8381526020019081526020015f205f9054906101000a900473ffffffffffffffffffffffffffffffffffffffff169050919050565b5f73ffffffffffffffffffffffffffffffffffffffff168273ffffffffffffffffffffffffffffffffffffffff1603611747575f6040517f64a0ae9200000000000000000000000000000000000000000000000000000000815260040161173e919061267b565b60405180910390fd5b5f61175383835f611493565b90505f73ffffffffffffffffffffffffffffffffffffffff168173ffffffffffffffffffffffffffffffffffffffff16146117c5575f6040517f73c6ac6e0000000000000000000000000000000000000000000000000000000081526004016117bc919061267b565b60405180910390fd5b505050565b8060065f8481526020019081526020015f2090816117e891906131f6565b507ff8e1a15aba9398e019f0b49df1a4fde98ee17ae345cb5f6b5e2c27f5033e8ce782604051611818919061275b565b60405180910390a15050565b5f73ffffffffffffffffffffffffffffffffffffffff168273ffffffffffffffffffffffffffffffffffffffff1603611894575f6040517f64a0ae9200000000000000000000000000000000000000000000000000000000815260040161188b919061267b565b60405180910390fd5b5f6118a083835f611493565b90505f73ffffffffffffffffffffffffffffffffffffffff168173ffffffffffffffffffffffffffffffffffffffff160361191257816040517f7e273289000000000000000000000000000000000000000000000000000000008152600401611909919061275b565b60405180910390fd5b8373ffffffffffffffffffffffffffffffffffffffff168173ffffffffffffffffffffffffffffffffffffffff1614611986578382826040517f64283d7b00000000000000000000000000000000000000000000000000000000815260040161197d93929190612af1565b60405180910390fd5b50505050565b5f73ffffffffffffffffffffffffffffffffffffffff168373ffffffffffffffffffffffffffffffffffffffff16036119fc575f6040517fa9fbf51f0000000000000000000000000000000000000000000000000000000081526004016119f3919061267b565b60405180910390fd5b5f73ffffffffffffffffffffffffffffffffffffffff168273ffffffffffffffffffffffffffffffffffffffff1603611a6c57816040517f5b08ba18000000000000000000000000000000000000000000000000000000008152600401611a63919061267b565b60405180910390fd5b8060055f8573ffffffffffffffffffffffffffffffffffffffff1673ffffffffffffffffffffffffffffffffffffffff1681526020019081526020015f205f8473ffffffffffffffffffffffffffffffffffffffff1673ffffffffffffffffffffffffffffffffffffffff1681526020019081526020015f205f6101000a81548160ff0219169083151502179055508173ffffffffffffffffffffffffffffffffffffffff168373ffffffffffffffffffffffffffffffffffffffff167f17307eab39ab6107e8899845ad3d59bd9653f200f220920489ca2b5937696c3183604051611b58919061251b565b60405180910390a3505050565b5f8373ffffffffffffffffffffffffffffffffffffffff163b1115611d0a578273ffffffffffffffffffffffffffffffffffffffff1663150b7a02868685856040518563ffffffff1660e01b8152600401611bc39493929190613317565b6020604051808303815f875af1925050508015611bfe57506040513d601f19601f82011682018060405250810190611bfb9190613375565b60015b611c7f573d805f8114611c2c576040519150601f19603f3d011682016040523d82523d5f602084013e611c31565b606091505b505f815103611c7757836040517f64a0ae92000000000000000000000000000000000000000000000000000000008152600401611c6e919061267b565b60405180910390fd5b805160208201fd5b63150b7a0260e01b7bffffffffffffffffffffffffffffffffffffffffffffffffffffffff1916817bffffffffffffffffffffffffffffffffffffffffffffffffffffffff191614611d0857836040517f64a0ae92000000000000000000000000000000000000000000000000000000008152600401611cff919061267b565b60405180910390fd5b505b5050505050565b6060611d1c826113bb565b505f611d26612078565b90505f611d328461208e565b90505f825103611d46578092505050611d88565b5f81511115611d7a578181604051602001611d629291906133da565b60405160208183030381529060405292505050611d88565b611d838461212f565b925050505b919050565b5f7f01ffc9a7000000000000000000000000000000000000000000000000000000007bffffffffffffffffffffffffffffffffffffffffffffffffffffffff1916827bffffffffffffffffffffffffffffffffffffffffffffffffffffffff1916149050919050565b8080611e2e57505f73ffffffffffffffffffffffffffffffffffffffff168273ffffffffffffffffffffffffffffffffffffffff1614155b15611f60575f611e3d846113bb565b90505f73ffffffffffffffffffffffffffffffffffffffff168373ffffffffffffffffffffffffffffffffffffffff1614158015611ea757508273ffffffffffffffffffffffffffffffffffffffff168173ffffffffffffffffffffffffffffffffffffffff1614155b8015611eba5750611eb88184611246565b155b15611efc57826040517fa9fbf51f000000000000000000000000000000000000000000000000000000008152600401611ef3919061267b565b60405180910390fd5b8115611f5e57838573ffffffffffffffffffffffffffffffffffffffff168273ffffffffffffffffffffffffffffffffffffffff167f8c5be1e5ebec7d5bd14f71427d1e84f3dd0314c0f7b2291e5b200ac8c7c3b92560405160405180910390a45b505b8360045f8581526020019081526020015f205f6101000a81548173ffffffffffffffffffffffffffffffffffffffff021916908373ffffffffffffffffffffffffffffffffffffffff16021790555050505050565b611fc0838383612195565b612073575f73ffffffffffffffffffffffffffffffffffffffff168373ffffffffffffffffffffffffffffffffffffffff160361203457806040517f7e27328900000000000000000000000000000000000000000000000000000000815260040161202b919061275b565b60405180910390fd5b81816040517f177e802f00000000000000000000000000000000000000000000000000000000815260040161206a9291906133fd565b60405180910390fd5b505050565b606060405180602001604052805f815250905090565b606060065f8381526020019081526020015f2080546120ac90612ac1565b80601f01602080910402602001604051908101604052809291908181526020018280546120d890612ac1565b80156121235780601f106120fa57610100808354040283529160200191612123565b820191905f5260205f20905b81548152906001019060200180831161210657829003601f168201915b50505050509050919050565b606061213a826113bb565b505f612144612078565b90505f8151116121625760405180602001604052805f81525061218d565b8061216c84612255565b60405160200161217d9291906133da565b6040516020818303038152906040525b915050919050565b5f8073ffffffffffffffffffffffffffffffffffffffff168373ffffffffffffffffffffffffffffffffffffffff161415801561224c57508273ffffffffffffffffffffffffffffffffffffffff168473ffffffffffffffffffffffffffffffffffffffff16148061220d575061220c8484611246565b5b8061224b57508273ffffffffffffffffffffffffffffffffffffffff1661223383611441565b73ffffffffffffffffffffffffffffffffffffffff16145b5b90509392505050565b60605f60016122638461231f565b0190505f8167ffffffffffffffff8111156122815761228061288b565b5b6040519080825280601f01601f1916602001820160405280156122b35781602001600182028036833780820191505090505b5090505f82602083010190505b600115612314578080600190039150507f3031323334353637383961626364656600000000000000000000000000000000600a86061a8153600a858161230957612308612e5c565b5b0494505f85036122c0575b819350505050919050565b5f805f90507a184f03e93ff9f4daa797ed6e38ed64bf6a1f010000000000000000831061237b577a184f03e93ff9f4daa797ed6e38ed64bf6a1f010000000000000000838161237157612370612e5c565b5b0492506040810190505b6d04ee2d6d415b85acef810000000083106123b8576d04ee2d6d415b85acef810000000083816123ae576123ad612e5c565b5b0492506020810190505b662386f26fc1000083106123e757662386f26fc1000083816123dd576123dc612e5c565b5b0492506010810190505b6305f5e1008310612410576305f5e100838161240657612405612e5c565b5b0492506008810190505b612710831061243557612710838161242b5761242a612e5c565b5b0492506004810190505b60648310612458576064838161244e5761244d612e5c565b5b0492506002810190505b600a8310612467576001810190505b80915050919050565b5f604051905090565b5f80fd5b5f80fd5b5f7fffffffff0000000000000000000000000000000000000000000000000000000082169050919050565b6124b581612481565b81146124bf575f80fd5b50565b5f813590506124d0816124ac565b92915050565b5f602082840312156124eb576124ea612479565b5b5f6124f8848285016124c2565b91505092915050565b5f8115159050919050565b61251581612501565b82525050565b5f60208201905061252e5f83018461250c565b92915050565b5f81519050919050565b5f82825260208201905092915050565b5f5b8381101561256b578082015181840152602081019050612550565b5f8484015250505050565b5f601f19601f8301169050919050565b5f61259082612534565b61259a818561253e565b93506125aa81856020860161254e565b6125b381612576565b840191505092915050565b5f6020820190508181035f8301526125d68184612586565b905092915050565b5f819050919050565b6125f0816125de565b81146125fa575f80fd5b50565b5f8135905061260b816125e7565b92915050565b5f6020828403121561262657612625612479565b5b5f612633848285016125fd565b91505092915050565b5f73ffffffffffffffffffffffffffffffffffffffff82169050919050565b5f6126658261263c565b9050919050565b6126758161265b565b82525050565b5f60208201905061268e5f83018461266c565b92915050565b61269d8161265b565b81146126a7575f80fd5b50565b5f813590506126b881612694565b92915050565b5f80604083850312156126d4576126d3612479565b5b5f6126e1858286016126aa565b92505060206126f2858286016125fd565b9150509250929050565b5f805f6060848603121561271357612712612479565b5b5f612720868287016126aa565b9350506020612731868287016126aa565b9250506040612742868287016125fd565b9150509250925092565b612755816125de565b82525050565b5f60208201905061276e5f83018461274c565b92915050565b5f6020828403121561278957612788612479565b5b5f612796848285016126aa565b91505092915050565b5f80604083850312156127b5576127b4612479565b5b5f6127c2858286016125fd565b92505060206127d3858286016125fd565b9150509250929050565b6127e681612501565b81146127f0575f80fd5b50565b5f81359050612801816127dd565b92915050565b5f806040838503121561281d5761281c612479565b5b5f61282a858286016126aa565b925050602061283b858286016127f3565b9150509250929050565b5f806040838503121561285b5761285a612479565b5b5f612868858286016125fd565b9250506020612879858286016126aa565b9150509250929050565b5f80fd5b5f80fd5b7f4e487b71000000000000000000000000000000000000000000000000000000005f52604160045260245ffd5b6128c182612576565b810181811067ffffffffffffffff821117156128e0576128df61288b565b5b80604052505050565b5f6128f2612470565b90506128fe82826128b8565b919050565b5f67ffffffffffffffff82111561291d5761291c61288b565b5b61292682612576565b9050602081019050919050565b828183375f83830152505050565b5f61295361294e84612903565b6128e9565b90508281526020810184848401111561296f5761296e612887565b5b61297a848285612933565b509392505050565b5f82601f83011261299657612995612883565b5b81356129a6848260208601612941565b91505092915050565b5f805f80608085870312156129c7576129c6612479565b5b5f6129d4878288016126aa565b94505060206129e5878288016126aa565b93505060406129f6878288016125fd565b925050606085013567ffffffffffffffff811115612a1757612a1661247d565b5b612a2387828801612982565b91505092959194509250565b5f604082019050612a425f83018561274c565b612a4f602083018461250c565b9392505050565b5f8060408385031215612a6c57612a6b612479565b5b5f612a79858286016126aa565b9250506020612a8a858286016126aa565b9150509250929050565b7f4e487b71000000000000000000000000000000000000000000000000000000005f52602260045260245ffd5b5f6002820490506001821680612ad857607f821691505b602082108103612aeb57612aea612a94565b5b50919050565b5f606082019050612b045f83018661266c565b612b11602083018561274c565b612b1e604083018461266c565b949350505050565b7f496e76616c696420746f6b656e000000000000000000000000000000000000005f82015250565b5f612b5a600d8361253e565b9150612b6582612b26565b602082019050919050565b5f6020820190508181035f830152612b8781612b4e565b9050919050565b7f496e73756666696369656e742066756e647320666f7220696e697469616c20735f8201527f616c650000000000000000000000000000000000000000000000000000000000602082015250565b5f612be860238361253e565b9150612bf382612b8e565b604082019050919050565b5f6020820190508181035f830152612c1581612bdc565b9050919050565b7f4e487b71000000000000000000000000000000000000000000000000000000005f52601160045260245ffd5b5f612c53826125de565b9150612c5e836125de565b9250828203905081811115612c7657612c75612c1c565b5b92915050565b7f546f6b656e206973206e6f74206c697374656420666f722073616c65000000005f82015250565b5f612cb0601c8361253e565b9150612cbb82612c7c565b602082019050919050565b5f6020820190508181035f830152612cdd81612ca4565b9050919050565b7f496e73756666696369656e742066756e647320666f72207365636f6e646172795f8201527f2070757263686173650000000000000000000000000000000000000000000000602082015250565b5f612d3e60298361253e565b9150612d4982612ce4565b604082019050919050565b5f6020820190508181035f830152612d6b81612d32565b9050919050565b7f43616e6e6f742062757920796f7572206f776e20746f6b656e000000000000005f82015250565b5f612da660198361253e565b9150612db182612d72565b602082019050919050565b5f6020820190508181035f830152612dd381612d9a565b9050919050565b5f81905092915050565b50565b5f612df25f83612dda565b9150612dfd82612de4565b5f82019050919050565b5f612e1182612de7565b9150819050919050565b5f612e25826125de565b9150612e30836125de565b9250828202612e3e816125de565b91508282048414831517612e5557612e54612c1c565b5b5092915050565b7f4e487b71000000000000000000000000000000000000000000000000000000005f52601260045260245ffd5b5f612e93826125de565b9150612e9e836125de565b925082612eae57612ead612e5c565b5b828204905092915050565b7f4e6f7420746865206f776e6572000000000000000000000000000000000000005f82015250565b5f612eed600d8361253e565b9150612ef882612eb9565b602082019050919050565b5f6020820190508181035f830152612f1a81612ee1565b9050919050565b7f5072696365206d7573742062652067726561746572207468616e207a65726f005f82015250565b5f612f55601f8361253e565b9150612f6082612f21565b602082019050919050565b5f6020820190508181035f830152612f8281612f49565b9050919050565b7f4e6f74206f776e6572206e6f7220617070726f766564000000000000000000005f82015250565b5f612fbd60168361253e565b9150612fc882612f89565b602082019050919050565b5f6020820190508181035f830152612fea81612fb1565b9050919050565b7f55524920717565727920666f72206e6f6e6578697374656e7420746f6b656e005f82015250565b5f613025601f8361253e565b915061303082612ff1565b602082019050919050565b5f6020820190508181035f83015261305281613019565b9050919050565b5f819050815f5260205f209050919050565b5f6020601f8301049050919050565b5f82821b905092915050565b5f600883026130b57fffffffffffffffffffffffffffffffffffffffffffffffffffffffffffffffff8261307a565b6130bf868361307a565b95508019841693508086168417925050509392505050565b5f819050919050565b5f6130fa6130f56130f0846125de565b6130d7565b6125de565b9050919050565b5f819050919050565b613113836130e0565b61312761311f82613101565b848454613086565b825550505050565b5f90565b61313b61312f565b61314681848461310a565b505050565b5b818110156131695761315e5f82613133565b60018101905061314c565b5050565b601f8211156131ae5761317f81613059565b6131888461306b565b81016020851015613197578190505b6131ab6131a38561306b565b83018261314b565b50505b505050565b5f82821c905092915050565b5f6131ce5f19846008026131b3565b1980831691505092915050565b5f6131e683836131bf565b9150826002028217905092915050565b6131ff82612534565b67ffffffffffffffff8111156132185761321761288b565b5b6132228254612ac1565b61322d82828561316d565b5f60209050601f83116001811461325e575f841561324c578287015190505b61325685826131db565b8655506132bd565b601f19841661326c86613059565b5f5b828110156132935784890151825560018201915060208501945060208101905061326e565b868310156132b057848901516132ac601f8916826131bf565b8355505b6001600288020188555050505b505050505050565b5f81519050919050565b5f82825260208201905092915050565b5f6132e9826132c5565b6132f381856132cf565b935061330381856020860161254e565b61330c81612576565b840191505092915050565b5f60808201905061332a5f83018761266c565b613337602083018661266c565b613344604083018561274c565b818103606083015261335681846132df565b905095945050505050565b5f8151905061336f816124ac565b92915050565b5f6020828403121561338a57613389612479565b5b5f61339784828501613361565b91505092915050565b5f81905092915050565b5f6133b482612534565b6133be81856133a0565b93506133ce81856020860161254e565b80840191505092915050565b5f6133e582856133aa565b91506133f182846133aa565b91508190509392505050565b5f6040820190506134105f83018561266c565b61341d602083018461274c565b939250505056fea2646970667358221220ba8df155b69a087263b0cc4d28d3e537d728682f0deffff6940d63d56647d50564736f6c63430008180033",
  "linkReferences": {},
  "deployedLinkReferences": {}
}