{
  "_format": "hh-sol-artifact-1",
  "contractName": "NappingCats",
  "sourceName": "contracts/NappingCats.sol",
  "abi": [
    {
      "inputs": [
        {
          "internalType": "uint256",
          "name": "_initialBasePrice",
          "type": "uint256"
        }
      ],
      "stateMutability": "nonpayable",
      "type": "constructor"
    },
    {
      "inputs": [
        {
          "internalType": "address",
          "name": "sender",
          "type": "address"
        },
        {
          "internalType": "uint256",
          "name": "tokenId",
          "type": "uint256"
        },
        {
          "internalType": "address",
          "name": "owner",
          "type": "address"
        }
      ],
      "name": "ERC721IncorrectOwner",
      "type": "error"
    },
    {
      "inputs": [
        {
          "internalType": "address",
          "name": "operator",
          "type": "address"
        },
        {
          "internalType": "uint256",
          "name": "tokenId",
          "type": "uint256"
        }
      ],
      "name": "ERC721InsufficientApproval",
      "type": "error"
    },
    {
      "inputs": [
        {
          "internalType": "address",
          "name": "approver",
          "type": "address"
        }
      ],
      "name": "ERC721InvalidApprover",
      "type": "error"
    },
    {
      "inputs": [
        {
          "internalType": "address",
          "name": "operator",
          "type": "address"
        }
      ],
      "name": "ERC721InvalidOperator",
      "type": "error"
    },
    {
      "inputs": [
        {
          "internalType": "address",
          "name": "owner",
          "type": "address"
        }
      ],
      "name": "ERC721InvalidOwner",
      "type": "error"
    },
    {
      "inputs": [
        {
          "internalType": "address",
          "name": "receiver",
          "type": "address"
        }
      ],
      "name": "ERC721InvalidReceiver",
      "type": "error"
    },
    {
      "inputs": [
        {
          "internalType": "address",
          "name": "sender",
          "type": "address"
        }
      ],
      "name": "ERC721InvalidSender",
      "type": "error"
    },
    {
      "inputs": [
        {
          "internalType": "uint256",
          "name": "tokenId",
          "type": "uint256"
        }
      ],
      "name": "ERC721NonexistentToken",
      "type": "error"
    },
    {
      "anonymous": false,
      "inputs": [
        {
          "indexed": true,
          "internalType": "address",
          "name": "owner",
          "type": "address"
        },
        {
          "indexed": true,
          "internalType": "address",
          "name": "approved",
          "type": "address"
        },
        {
          "indexed": true,
          "internalType": "uint256",
          "name": "tokenId",
          "type": "uint256"
        }
      ],
      "name": "Approval",
      "type": "event"
    },
    {
      "anonymous": false,
      "inputs": [
        {
          "indexed": true,
          "internalType": "address",
          "name": "owner",
          "type": "address"
        },
        {
          "indexed": true,
          "internalType": "address",
          "name": "operator",
          "type": "address"
        },
        {
          "indexed": false,
          "internalType": "bool",
          "name": "approved",
          "type": "bool"
        }
      ],
      "name": "ApprovalForAll",
      "type": "event"
    },
    {
      "anonymous": false,
      "inputs": [
        {
          "indexed": false,
          "internalType": "uint256",
          "name": "_fromTokenId",
          "type": "uint256"
        },
        {
          "indexed": false,
          "internalType": "uint256",
          "name": "_toTokenId",
          "type": "uint256"
        }
      ],
      "name": "BatchMetadataUpdate",
      "type": "event"
    },
    {
      "anonymous": false,
      "inputs": [
        {
          "indexed": false,
          "internalType": "uint256",
          "name": "_tokenId",
          "type": "uint256"
        }
      ],
      "name": "MetadataUpdate",
      "type": "event"
    },
    {
      "anonymous": false,
      "inputs": [
        {
          "indexed": true,
          "internalType": "address",
          "name": "from",
          "type": "address"
        },
        {
          "indexed": true,
          "internalType": "address",
          "name": "to",
          "type": "address"
        },
        {
          "indexed": true,
          "internalType": "uint256",
          "name": "tokenId",
          "type": "uint256"
        }
      ],
      "name": "Transfer",
      "type": "event"
    },
    {
      "inputs": [],
      "name": "AUCTION_DURATION",
      "outputs": [
        {
          "internalType": "uint256",
          "name": "",
          "type": "uint256"
        }
      ],
      "stateMutability": "view",
      "type": "function"
    },
    {
      "inputs": [],
      "name": "AUCTION_MULTIPLIER",
      "outputs": [
        {
          "internalType": "uint256",
          "name": "",
          "type": "uint256"
        }
      ],
      "stateMutability": "view",
      "type": "function"
    },
    {
      "inputs": [
        {
          "internalType": "address",
          "name": "to",
          "type": "address"
        },
        {
          "internalType": "uint256",
          "name": "tokenId",
          "type": "uint256"
        }
      ],
      "name": "approve",
      "outputs": [],
      "stateMutability": "nonpayable",
      "type": "function"
    },
    {
      "inputs": [],
      "name": "auctionStartTime",
      "outputs": [
        {
          "internalType": "uint256",
          "name": "",
          "type": "uint256"
        }
      ],
      "stateMutability": "view",
      "type": "function"
    },
    {
      "inputs": [
        {
          "internalType": "address",
          "name": "owner",
          "type": "address"
        }
      ],
      "name": "balanceOf",
      "outputs": [
        {
          "internalType": "uint256",
          "name": "",
          "type": "uint256"
        }
      ],
      "stateMutability": "view",
      "type": "function"
    },
    {
      "inputs": [
        {
          "internalType": "uint256",
          "name": "tokenId",
          "type": "uint256"
        }
      ],
      "name": "buyToken",
      "outputs": [],
      "stateMutability": "payable",
      "type": "function"
    },
    {
      "inputs": [
        {
          "internalType": "uint256",
          "name": "tokenId",
          "type": "uint256"
        }
      ],
      "name": "delistToken",
      "outputs": [],
      "stateMutability": "nonpayable",
      "type": "function"
    },
    {
      "inputs": [
        {
          "internalType": "uint256",
          "name": "tokenId",
          "type": "uint256"
        }
      ],
      "name": "getApproved",
      "outputs": [
        {
          "internalType": "address",
          "name": "",
          "type": "address"
        }
      ],
      "stateMutability": "view",
      "type": "function"
    },
    {
      "inputs": [],
      "name": "getCurrentInitialPrice",
      "outputs": [
        {
          "internalType": "uint256",
          "name": "",
          "type": "uint256"
        }
      ],
      "stateMutability": "view",
      "type": "function"
    },
    {
      "inputs": [],
      "name": "initialBasePrice",
      "outputs": [
        {
          "internalType": "uint256",
          "name": "",
          "type": "uint256"
        }
      ],
      "stateMutability": "view",
      "type": "function"
    },
    {
      "inputs": [
        {
          "internalType": "address",
          "name": "owner",
          "type": "address"
        },
        {
          "internalType": "address",
          "name": "operator",
          "type": "address"
        }
      ],
      "name": "isApprovedForAll",
      "outputs": [
        {
          "internalType": "bool",
          "name": "",
          "type": "bool"
        }
      ],
      "stateMutability": "view",
      "type": "function"
    },
    {
      "inputs": [
        {
          "internalType": "uint256",
          "name": "tokenId",
          "type": "uint256"
        },
        {
          "internalType": "uint256",
          "name": "price",
          "type": "uint256"
        }
      ],
      "name": "listToken",
      "outputs": [],
      "stateMutability": "nonpayable",
      "type": "function"
    },
    {
      "inputs": [
        {
          "internalType": "uint256",
          "name": "",
          "type": "uint256"
        }
      ],
      "name": "listings",
      "outputs": [
        {
          "internalType": "uint256",
          "name": "price",
          "type": "uint256"
        },
        {
          "internalType": "bool",
          "name": "isListed",
          "type": "bool"
        }
      ],
      "stateMutability": "view",
      "type": "function"
    },
    {
      "inputs": [],
      "name": "name",
      "outputs": [
        {
          "internalType": "string",
          "name": "",
          "type": "string"
        }
      ],
      "stateMutability": "view",
      "type": "function"
    },
    {
      "inputs": [
        {
          "internalType": "uint256",
          "name": "tokenId",
          "type": "uint256"
        }
      ],
      "name": "ownerOf",
      "outputs": [
        {
          "internalType": "address",
          "name": "",
          "type": "address"
        }
      ],
      "stateMutability": "view",
      "type": "function"
    },
    {
      "inputs": [
        {
          "internalType": "address",
          "name": "from",
          "type": "address"
        },
        {
          "internalType": "address",
          "name": "to",
          "type": "address"
        },
        {
          "internalType": "uint256",
          "name": "tokenId",
          "type": "uint256"
        }
      ],
      "name": "safeTransferFrom",
      "outputs": [],
      "stateMutability": "nonpayable",
      "type": "function"
    },
    {
      "inputs": [
        {
          "internalType": "address",
          "name": "from",
          "type": "address"
        },
        {
          "internalType": "address",
          "name": "to",
          "type": "address"
        },
        {
          "internalType": "uint256",
          "name": "tokenId",
          "type": "uint256"
        },
        {
          "internalType": "bytes",
          "name": "data",
          "type": "bytes"
        }
      ],
      "name": "safeTransferFrom",
      "outputs": [],
      "stateMutability": "nonpayable",
      "type": "function"
    },
    {
      "inputs": [
        {
          "internalType": "address",
          "name": "operator",
          "type": "address"
        },
        {
          "internalType": "bool",
          "name": "approved",
          "type": "bool"
        }
      ],
      "name": "setApprovalForAll",
      "outputs": [],
      "stateMutability": "nonpayable",
      "type": "function"
    },
    {
      "inputs": [
        {
          "internalType": "bytes4",
          "name": "interfaceId",
          "type": "bytes4"
        }
      ],
      "name": "supportsInterface",
      "outputs": [
        {
          "internalType": "bool",
          "name": "",
          "type": "bool"
        }
      ],
      "stateMutability": "view",
      "type": "function"
    },
    {
      "inputs": [],
      "name": "symbol",
      "outputs": [
        {
          "internalType": "string",
          "name": "",
          "type": "string"
        }
      ],
      "stateMutability": "view",
      "type": "function"
    },
    {
      "inputs": [
        {
          "internalType": "uint256",
          "name": "tokenId",
          "type": "uint256"
        }
      ],
      "name": "tokenURI",
      "outputs": [
        {
          "internalType": "string",
          "name": "",
          "type": "string"
        }
      ],
      "stateMutability": "view",
      "type": "function"
    },
    {
      "inputs": [
        {
          "internalType": "uint256",
          "name": "tokenId",
          "type": "uint256"
        },
        {
          "internalType": "address",
          "name": "to",
          "type": "address"
        }
      ],
      "name": "transfer",
      "outputs": [],
      "stateMutability": "nonpayable",
      "type": "function"
    },
    {
      "inputs": [
        {
          "internalType": "address",
          "name": "from",
          "type": "address"
        },
        {
          "internalType": "address",
          "name": "to",
          "type": "address"
        },
        {
          "internalType": "uint256",
          "name": "tokenId",
          "type": "uint256"
        }
      ],
      "name": "transferFrom",
      "outputs": [],
      "stateMutability": "nonpayable",
      "type": "function"
    }
  ],
  "bytecode": "0x608060405234801562000010575f80fd5b506040516200399338038062003993833981810160405281019062000036919062000220565b6040518060400160405280600c81526020017f4e617070696e67204361747300000000000000000000000000000000000000008152506040518060400160405280600481526020017f4e434154000000000000000000000000000000000000000000000000000000008152508181815f9081620000b49190620004ab565b508060019081620000c69190620004ab565b505050505080600781905550426008819055506040518060400160405280600681526020017f302e6a736f6e0000000000000000000000000000000000000000000000000000815250600a5f8081526020019081526020015f2090816200012e9190620004ab565b506040518060400160405280600681526020017f312e6a736f6e0000000000000000000000000000000000000000000000000000815250600a5f600181526020019081526020015f209081620001859190620004ab565b506040518060400160405280600681526020017f322e6a736f6e0000000000000000000000000000000000000000000000000000815250600a5f600281526020019081526020015f209081620001dc9190620004ab565b50506200058f565b5f80fd5b5f819050919050565b620001fc81620001e8565b811462000207575f80fd5b50565b5f815190506200021a81620001f1565b92915050565b5f60208284031215620002385762000237620001e4565b5b5f62000247848285016200020a565b91505092915050565b5f81519050919050565b7f4e487b71000000000000000000000000000000000000000000000000000000005f52604160045260245ffd5b7f4e487b71000000000000000000000000000000000000000000000000000000005f52602260045260245ffd5b5f6002820490506001821680620002cc57607f821691505b602082108103620002e257620002e162000287565b5b50919050565b5f819050815f5260205f209050919050565b5f6020601f8301049050919050565b5f82821b905092915050565b5f60088302620003467fffffffffffffffffffffffffffffffffffffffffffffffffffffffffffffffff8262000309565b62000352868362000309565b95508019841693508086168417925050509392505050565b5f819050919050565b5f620003936200038d6200038784620001e8565b6200036a565b620001e8565b9050919050565b5f819050919050565b620003ae8362000373565b620003c6620003bd826200039a565b84845462000315565b825550505050565b5f90565b620003dc620003ce565b620003e9818484620003a3565b505050565b5b818110156200041057620004045f82620003d2565b600181019050620003ef565b5050565b601f8211156200045f576200042981620002e8565b6200043484620002fa565b8101602085101562000444578190505b6200045c6200045385620002fa565b830182620003ee565b50505b505050565b5f82821c905092915050565b5f620004815f198460080262000464565b1980831691505092915050565b5f6200049b838362000470565b9150826002028217905092915050565b620004b68262000250565b67ffffffffffffffff811115620004d257620004d16200025a565b5b620004de8254620002b4565b620004eb82828562000414565b5f60209050601f83116001811462000521575f84156200050c578287015190505b6200051885826200048e565b86555062000587565b601f1984166200053186620002e8565b5f5b828110156200055a5784890151825560018201915060208501945060208101905062000533565b868310156200057a578489015162000576601f89168262000470565b8355505b6001600288020188555050505b505050505050565b6133f6806200059d5f395ff3fe60806040526004361061013f575f3560e01c806375c1631d116100b5578063b88d4fde1161006e578063b88d4fde1461043b578063bed659bc14610463578063c87b56dd1461048b578063de74e57b146104c7578063e985e9c514610504578063eb54f9ec146105405761013f565b806375c1631d1461034557806395d89b411461036d5780639fff0f6214610397578063a22cb465146103c1578063a271e525146103e9578063b7760c8f146104135761013f565b80632d296bf1116101075780632d296bf11461023557806342842e0e146102515780636352211e146102795780636da37526146102b557806370a08231146102df57806370e40e441461031b5761013f565b806301ffc9a71461014357806306fdde031461017f578063081812fc146101a9578063095ea7b3146101e557806323b872dd1461020d575b5f80fd5b34801561014e575f80fd5b506101696004803603810190610164919061248d565b61056a565b60405161017691906124d2565b60405180910390f35b34801561018a575f80fd5b506101936105ca565b6040516101a09190612575565b60405180910390f35b3480156101b4575f80fd5b506101cf60048036038101906101ca91906125c8565b610659565b6040516101dc9190612632565b60405180910390f35b3480156101f0575f80fd5b5061020b60048036038101906102069190612675565b610674565b005b348015610218575f80fd5b50610233600480360381019061022e91906126b3565b61068a565b005b61024f600480360381019061024a91906125c8565b610789565b005b34801561025c575f80fd5b50610277600480360381019061027291906126b3565b610b8c565b005b348015610284575f80fd5b5061029f600480360381019061029a91906125c8565b610bab565b6040516102ac9190612632565b60405180910390f35b3480156102c0575f80fd5b506102c9610bbc565b6040516102d69190612712565b60405180910390f35b3480156102ea575f80fd5b506103056004803603810190610300919061272b565b610c34565b6040516103129190612712565b60405180910390f35b348015610326575f80fd5b5061032f610cea565b60405161033c9190612712565b60405180910390f35b348015610350575f80fd5b5061036b60048036038101906103669190612756565b610cef565b005b348015610378575f80fd5b50610381610dfe565b60405161038e9190612575565b60405180910390f35b3480156103a2575f80fd5b506103ab610e8e565b6040516103b89190612712565b60405180910390f35b3480156103cc575f80fd5b506103e760048036038101906103e291906127be565b610e94565b005b3480156103f4575f80fd5b506103fd610eaa565b60405161040a9190612712565b60405180910390f35b34801561041e575f80fd5b50610439600480360381019061043491906127fc565b610eb1565b005b348015610446575f80fd5b50610461600480360381019061045c9190612966565b610f95565b005b34801561046e575f80fd5b50610489600480360381019061048491906125c8565b610fba565b005b348015610496575f80fd5b506104b160048036038101906104ac91906125c8565b611085565b6040516104be9190612575565b60405180910390f35b3480156104d2575f80fd5b506104ed60048036038101906104e891906125c8565b6111d1565b6040516104fb9291906129e6565b60405180910390f35b34801561050f575f80fd5b5061052a60048036038101906105259190612a0d565b6111fd565b60405161053791906124d2565b60405180910390f35b34801561054b575f80fd5b5061055461128b565b6040516105619190612712565b60405180910390f35b5f634906490660e01b7bffffffffffffffffffffffffffffffffffffffffffffffffffffffff1916827bffffffffffffffffffffffffffffffffffffffffffffffffffffffff191614806105c357506105c282611291565b5b9050919050565b60605f80546105d890612a78565b80601f016020809104026020016040519081016040528092919081815260200182805461060490612a78565b801561064f5780601f106106265761010080835404028352916020019161064f565b820191905f5260205f20905b81548152906001019060200180831161063257829003601f168201915b5050505050905090565b5f61066382611372565b5061066d826113f8565b9050919050565b6106868282610681611431565b611438565b5050565b5f73ffffffffffffffffffffffffffffffffffffffff168273ffffffffffffffffffffffffffffffffffffffff16036106fa575f6040517f64a0ae920000000000000000000000000000000000000000000000000000000081526004016106f19190612632565b60405180910390fd5b5f61070d8383610708611431565b61144a565b90508373ffffffffffffffffffffffffffffffffffffffff168173ffffffffffffffffffffffffffffffffffffffff1614610783578382826040517f64283d7b00000000000000000000000000000000000000000000000000000000815260040161077a93929190612aa8565b60405180910390fd5b50505050565b5f61079382611655565b90505f73ffffffffffffffffffffffffffffffffffffffff168173ffffffffffffffffffffffffffffffffffffffff160361096f575f82101580156107d9575060028211155b610818576040517f08c379a000000000000000000000000000000000000000000000000000000000815260040161080f90612b27565b60405180910390fd5b5f610821610bbc565b905080341015610866576040517f08c379a000000000000000000000000000000000000000000000000000000000815260040161085d90612bb5565b60405180910390fd5b610870338461168e565b61091183600a5f8681526020019081526020015f20805461089090612a78565b80601f01602080910402602001604051908101604052809291908181526020018280546108bc90612a78565b80156109075780601f106108de57610100808354040283529160200191610907565b820191905f5260205f20905b8154815290600101906020018083116108ea57829003601f168201915b5050505050611781565b80341115610969573373ffffffffffffffffffffffffffffffffffffffff166108fc823461093f9190612c00565b90811502906040515f60405180830381858888f19350505050158015610967573d5f803e3d5ffd5b505b50610b88565b5f60095f8481526020019081526020015f206040518060400160405290815f8201548152602001600182015f9054906101000a900460ff161515151581525050905080602001516109f5576040517f08c379a00000000000000000000000000000000000000000000000000000000081526004016109ec90612c7d565b60405180910390fd5b805f0151341015610a3b576040517f08c379a0000000000000000000000000000000000000000000000000000000008152600401610a3290612d0b565b60405180910390fd5b3373ffffffffffffffffffffffffffffffffffffffff168273ffffffffffffffffffffffffffffffffffffffff1603610aa9576040517f08c379a0000000000000000000000000000000000000000000000000000000008152600401610aa090612d73565b60405180910390fd5b8173ffffffffffffffffffffffffffffffffffffffff166108fc825f015190811502906040515f60405180830381858888f19350505050158015610aef573d5f803e3d5ffd5b50805f0151341115610b4e573373ffffffffffffffffffffffffffffffffffffffff166108fc825f015134610b249190612c00565b90811502906040515f60405180830381858888f19350505050158015610b4c573d5f803e3d5ffd5b505b610b598233856117db565b60095f8481526020019081526020015f205f8082015f9055600182015f6101000a81549060ff02191690555050505b5050565b610ba683838360405180602001604052805f815250610f95565b505050565b5f610bb582611372565b9050919050565b5f8060085442610bcc9190612c00565b9050620151808110610be357600754915050610c31565b5f6064600754610bf39190612d91565b90505f620151808360075484610c099190612c00565b610c139190612d91565b610c1d9190612dff565b90508082610c2b9190612c00565b93505050505b90565b5f8073ffffffffffffffffffffffffffffffffffffffff168273ffffffffffffffffffffffffffffffffffffffff1603610ca5575f6040517f89c62b64000000000000000000000000000000000000000000000000000000008152600401610c9c9190612632565b60405180910390fd5b60035f8373ffffffffffffffffffffffffffffffffffffffff1673ffffffffffffffffffffffffffffffffffffffff1681526020019081526020015f20549050919050565b606481565b3373ffffffffffffffffffffffffffffffffffffffff16610d0f83610bab565b73ffffffffffffffffffffffffffffffffffffffff1614610d65576040517f08c379a0000000000000000000000000000000000000000000000000000000008152600401610d5c90612e79565b60405180910390fd5b5f8111610da7576040517f08c379a0000000000000000000000000000000000000000000000000000000008152600401610d9e90612ee1565b60405180910390fd5b60405180604001604052808281526020016001151581525060095f8481526020019081526020015f205f820151815f01556020820151816001015f6101000a81548160ff0219169083151502179055509050505050565b606060018054610e0d90612a78565b80601f0160208091040260200160405190810160405280929190818152602001828054610e3990612a78565b8015610e845780601f10610e5b57610100808354040283529160200191610e84565b820191905f5260205f20905b815481529060010190602001808311610e6757829003601f168201915b5050505050905090565b60075481565b610ea6610e9f611431565b8383611943565b5050565b6201518081565b3373ffffffffffffffffffffffffffffffffffffffff16610ed183610bab565b73ffffffffffffffffffffffffffffffffffffffff161480610f2657503373ffffffffffffffffffffffffffffffffffffffff16610f0e83610659565b73ffffffffffffffffffffffffffffffffffffffff16145b80610f3f5750610f3e610f3883610bab565b336111fd565b5b610f7e576040517f08c379a0000000000000000000000000000000000000000000000000000000008152600401610f7590612f6f565b60405180910390fd5b610f91610f8a83610bab565b82846117db565b5050565b610fa084848461068a565b610fb4610fab611431565b85858585611b1c565b50505050565b3373ffffffffffffffffffffffffffffffffffffffff16610fda82610bab565b73ffffffffffffffffffffffffffffffffffffffff1614611030576040517f08c379a000000000000000000000000000000000000000000000000000000000815260040161102790612e79565b60405180910390fd5b60405180604001604052805f81526020015f151581525060095f8381526020019081526020015f205f820151815f01556020820151816001015f6101000a81548160ff02191690831515021790555090505050565b60605f73ffffffffffffffffffffffffffffffffffffffff166110a783611655565b73ffffffffffffffffffffffffffffffffffffffff16036111c0575f600a5f8481526020019081526020015f2080546110df90612a78565b905011611121576040517f08c379a000000000000000000000000000000000000000000000000000000000815260040161111890612fd7565b60405180910390fd5b600a5f8381526020019081526020015f20805461113d90612a78565b80601f016020809104026020016040519081016040528092919081815260200182805461116990612a78565b80156111b45780601f1061118b576101008083540402835291602001916111b4565b820191905f5260205f20905b81548152906001019060200180831161119757829003601f168201915b505050505090506111cc565b6111c982611cc8565b90505b919050565b6009602052805f5260405f205f91509050805f015490806001015f9054906101000a900460ff16905082565b5f60055f8473ffffffffffffffffffffffffffffffffffffffff1673ffffffffffffffffffffffffffffffffffffffff1681526020019081526020015f205f8373ffffffffffffffffffffffffffffffffffffffff1673ffffffffffffffffffffffffffffffffffffffff1681526020019081526020015f205f9054906101000a900460ff16905092915050565b60085481565b5f7f80ac58cd000000000000000000000000000000000000000000000000000000007bffffffffffffffffffffffffffffffffffffffffffffffffffffffff1916827bffffffffffffffffffffffffffffffffffffffffffffffffffffffff1916148061135b57507f5b5e139f000000000000000000000000000000000000000000000000000000007bffffffffffffffffffffffffffffffffffffffffffffffffffffffff1916827bffffffffffffffffffffffffffffffffffffffffffffffffffffffff1916145b8061136b575061136a82611d44565b5b9050919050565b5f8061137d83611655565b90505f73ffffffffffffffffffffffffffffffffffffffff168173ffffffffffffffffffffffffffffffffffffffff16036113ef57826040517f7e2732890000000000000000000000000000000000000000000000000000000081526004016113e69190612712565b60405180910390fd5b80915050919050565b5f60045f8381526020019081526020015f205f9054906101000a900473ffffffffffffffffffffffffffffffffffffffff169050919050565b5f33905090565b6114458383836001611dad565b505050565b5f8061145584611655565b90505f73ffffffffffffffffffffffffffffffffffffffff168373ffffffffffffffffffffffffffffffffffffffff161461149657611495818486611f6c565b5b5f73ffffffffffffffffffffffffffffffffffffffff168173ffffffffffffffffffffffffffffffffffffffff1614611521576114d55f855f80611dad565b600160035f8373ffffffffffffffffffffffffffffffffffffffff1673ffffffffffffffffffffffffffffffffffffffff1681526020019081526020015f205f82825403925050819055505b5f73ffffffffffffffffffffffffffffffffffffffff168573ffffffffffffffffffffffffffffffffffffffff16146115a057600160035f8773ffffffffffffffffffffffffffffffffffffffff1673ffffffffffffffffffffffffffffffffffffffff1681526020019081526020015f205f82825401925050819055505b8460025f8681526020019081526020015f205f6101000a81548173ffffffffffffffffffffffffffffffffffffffff021916908373ffffffffffffffffffffffffffffffffffffffff160217905550838573ffffffffffffffffffffffffffffffffffffffff168273ffffffffffffffffffffffffffffffffffffffff167fddf252ad1be2c89b69c2b068fc378daa952ba7f163c4a11628f55a4df523b3ef60405160405180910390a4809150509392505050565b5f60025f8381526020019081526020015f205f9054906101000a900473ffffffffffffffffffffffffffffffffffffffff169050919050565b5f73ffffffffffffffffffffffffffffffffffffffff168273ffffffffffffffffffffffffffffffffffffffff16036116fe575f6040517f64a0ae920000000000000000000000000000000000000000000000000000000081526004016116f59190612632565b60405180910390fd5b5f61170a83835f61144a565b90505f73ffffffffffffffffffffffffffffffffffffffff168173ffffffffffffffffffffffffffffffffffffffff161461177c575f6040517f73c6ac6e0000000000000000000000000000000000000000000000000000000081526004016117739190612632565b60405180910390fd5b505050565b8060065f8481526020019081526020015f20908161179f9190613192565b507ff8e1a15aba9398e019f0b49df1a4fde98ee17ae345cb5f6b5e2c27f5033e8ce7826040516117cf9190612712565b60405180910390a15050565b5f73ffffffffffffffffffffffffffffffffffffffff168273ffffffffffffffffffffffffffffffffffffffff160361184b575f6040517f64a0ae920000000000000000000000000000000000000000000000000000000081526004016118429190612632565b60405180910390fd5b5f61185783835f61144a565b90505f73ffffffffffffffffffffffffffffffffffffffff168173ffffffffffffffffffffffffffffffffffffffff16036118c957816040517f7e2732890000000000000000000000000000000000000000000000000000000081526004016118c09190612712565b60405180910390fd5b8373ffffffffffffffffffffffffffffffffffffffff168173ffffffffffffffffffffffffffffffffffffffff161461193d578382826040517f64283d7b00000000000000000000000000000000000000000000000000000000815260040161193493929190612aa8565b60405180910390fd5b50505050565b5f73ffffffffffffffffffffffffffffffffffffffff168373ffffffffffffffffffffffffffffffffffffffff16036119b3575f6040517fa9fbf51f0000000000000000000000000000000000000000000000000000000081526004016119aa9190612632565b60405180910390fd5b5f73ffffffffffffffffffffffffffffffffffffffff168273ffffffffffffffffffffffffffffffffffffffff1603611a2357816040517f5b08ba18000000000000000000000000000000000000000000000000000000008152600401611a1a9190612632565b60405180910390fd5b8060055f8573ffffffffffffffffffffffffffffffffffffffff1673ffffffffffffffffffffffffffffffffffffffff1681526020019081526020015f205f8473ffffffffffffffffffffffffffffffffffffffff1673ffffffffffffffffffffffffffffffffffffffff1681526020019081526020015f205f6101000a81548160ff0219169083151502179055508173ffffffffffffffffffffffffffffffffffffffff168373ffffffffffffffffffffffffffffffffffffffff167f17307eab39ab6107e8899845ad3d59bd9653f200f220920489ca2b5937696c3183604051611b0f91906124d2565b60405180910390a3505050565b5f8373ffffffffffffffffffffffffffffffffffffffff163b1115611cc1578273ffffffffffffffffffffffffffffffffffffffff1663150b7a02868685856040518563ffffffff1660e01b8152600401611b7a94939291906132b3565b6020604051808303815f875af1925050508015611bb557506040513d601f19601f82011682018060405250810190611bb29190613311565b60015b611c36573d805f8114611be3576040519150601f19603f3d011682016040523d82523d5f602084013e611be8565b606091505b505f815103611c2e57836040517f64a0ae92000000000000000000000000000000000000000000000000000000008152600401611c259190612632565b60405180910390fd5b805160208201fd5b63150b7a0260e01b7bffffffffffffffffffffffffffffffffffffffffffffffffffffffff1916817bffffffffffffffffffffffffffffffffffffffffffffffffffffffff191614611cbf57836040517f64a0ae92000000000000000000000000000000000000000000000000000000008152600401611cb69190612632565b60405180910390fd5b505b5050505050565b6060611cd382611372565b505f611cdd61202f565b90505f611ce984612045565b90505f825103611cfd578092505050611d3f565b5f81511115611d31578181604051602001611d19929190613376565b60405160208183030381529060405292505050611d3f565b611d3a846120e6565b925050505b919050565b5f7f01ffc9a7000000000000000000000000000000000000000000000000000000007bffffffffffffffffffffffffffffffffffffffffffffffffffffffff1916827bffffffffffffffffffffffffffffffffffffffffffffffffffffffff1916149050919050565b8080611de557505f73ffffffffffffffffffffffffffffffffffffffff168273ffffffffffffffffffffffffffffffffffffffff1614155b15611f17575f611df484611372565b90505f73ffffffffffffffffffffffffffffffffffffffff168373ffffffffffffffffffffffffffffffffffffffff1614158015611e5e57508273ffffffffffffffffffffffffffffffffffffffff168173ffffffffffffffffffffffffffffffffffffffff1614155b8015611e715750611e6f81846111fd565b155b15611eb357826040517fa9fbf51f000000000000000000000000000000000000000000000000000000008152600401611eaa9190612632565b60405180910390fd5b8115611f1557838573ffffffffffffffffffffffffffffffffffffffff168273ffffffffffffffffffffffffffffffffffffffff167f8c5be1e5ebec7d5bd14f71427d1e84f3dd0314c0f7b2291e5b200ac8c7c3b92560405160405180910390a45b505b8360045f8581526020019081526020015f205f6101000a81548173ffffffffffffffffffffffffffffffffffffffff021916908373ffffffffffffffffffffffffffffffffffffffff16021790555050505050565b611f7783838361214c565b61202a575f73ffffffffffffffffffffffffffffffffffffffff168373ffffffffffffffffffffffffffffffffffffffff1603611feb57806040517f7e273289000000000000000000000000000000000000000000000000000000008152600401611fe29190612712565b60405180910390fd5b81816040517f177e802f000000000000000000000000000000000000000000000000000000008152600401612021929190613399565b60405180910390fd5b505050565b606060405180602001604052805f815250905090565b606060065f8381526020019081526020015f20805461206390612a78565b80601f016020809104026020016040519081016040528092919081815260200182805461208f90612a78565b80156120da5780601f106120b1576101008083540402835291602001916120da565b820191905f5260205f20905b8154815290600101906020018083116120bd57829003601f168201915b50505050509050919050565b60606120f182611372565b505f6120fb61202f565b90505f8151116121195760405180602001604052805f815250612144565b806121238461220c565b604051602001612134929190613376565b6040516020818303038152906040525b915050919050565b5f8073ffffffffffffffffffffffffffffffffffffffff168373ffffffffffffffffffffffffffffffffffffffff161415801561220357508273ffffffffffffffffffffffffffffffffffffffff168473ffffffffffffffffffffffffffffffffffffffff1614806121c457506121c384846111fd565b5b8061220257508273ffffffffffffffffffffffffffffffffffffffff166121ea836113f8565b73ffffffffffffffffffffffffffffffffffffffff16145b5b90509392505050565b60605f600161221a846122d6565b0190505f8167ffffffffffffffff81111561223857612237612842565b5b6040519080825280601f01601f19166020018201604052801561226a5781602001600182028036833780820191505090505b5090505f82602083010190505b6001156122cb578080600190039150507f3031323334353637383961626364656600000000000000000000000000000000600a86061a8153600a85816122c0576122bf612dd2565b5b0494505f8503612277575b819350505050919050565b5f805f90507a184f03e93ff9f4daa797ed6e38ed64bf6a1f0100000000000000008310612332577a184f03e93ff9f4daa797ed6e38ed64bf6a1f010000000000000000838161232857612327612dd2565b5b0492506040810190505b6d04ee2d6d415b85acef8100000000831061236f576d04ee2d6d415b85acef8100000000838161236557612364612dd2565b5b0492506020810190505b662386f26fc10000831061239e57662386f26fc10000838161239457612393612dd2565b5b0492506010810190505b6305f5e10083106123c7576305f5e10083816123bd576123bc612dd2565b5b0492506008810190505b61271083106123ec5761271083816123e2576123e1612dd2565b5b0492506004810190505b6064831061240f576064838161240557612404612dd2565b5b0492506002810190505b600a831061241e576001810190505b80915050919050565b5f604051905090565b5f80fd5b5f80fd5b5f7fffffffff0000000000000000000000000000000000000000000000000000000082169050919050565b61246c81612438565b8114612476575f80fd5b50565b5f8135905061248781612463565b92915050565b5f602082840312156124a2576124a1612430565b5b5f6124af84828501612479565b91505092915050565b5f8115159050919050565b6124cc816124b8565b82525050565b5f6020820190506124e55f8301846124c3565b92915050565b5f81519050919050565b5f82825260208201905092915050565b5f5b83811015612522578082015181840152602081019050612507565b5f8484015250505050565b5f601f19601f8301169050919050565b5f612547826124eb565b61255181856124f5565b9350612561818560208601612505565b61256a8161252d565b840191505092915050565b5f6020820190508181035f83015261258d818461253d565b905092915050565b5f819050919050565b6125a781612595565b81146125b1575f80fd5b50565b5f813590506125c28161259e565b92915050565b5f602082840312156125dd576125dc612430565b5b5f6125ea848285016125b4565b91505092915050565b5f73ffffffffffffffffffffffffffffffffffffffff82169050919050565b5f61261c826125f3565b9050919050565b61262c81612612565b82525050565b5f6020820190506126455f830184612623565b92915050565b61265481612612565b811461265e575f80fd5b50565b5f8135905061266f8161264b565b92915050565b5f806040838503121561268b5761268a612430565b5b5f61269885828601612661565b92505060206126a9858286016125b4565b9150509250929050565b5f805f606084860312156126ca576126c9612430565b5b5f6126d786828701612661565b93505060206126e886828701612661565b92505060406126f9868287016125b4565b9150509250925092565b61270c81612595565b82525050565b5f6020820190506127255f830184612703565b92915050565b5f602082840312156127405761273f612430565b5b5f61274d84828501612661565b91505092915050565b5f806040838503121561276c5761276b612430565b5b5f612779858286016125b4565b925050602061278a858286016125b4565b9150509250929050565b61279d816124b8565b81146127a7575f80fd5b50565b5f813590506127b881612794565b92915050565b5f80604083850312156127d4576127d3612430565b5b5f6127e185828601612661565b92505060206127f2858286016127aa565b9150509250929050565b5f806040838503121561281257612811612430565b5b5f61281f858286016125b4565b925050602061283085828601612661565b9150509250929050565b5f80fd5b5f80fd5b7f4e487b71000000000000000000000000000000000000000000000000000000005f52604160045260245ffd5b6128788261252d565b810181811067ffffffffffffffff8211171561289757612896612842565b5b80604052505050565b5f6128a9612427565b90506128b5828261286f565b919050565b5f67ffffffffffffffff8211156128d4576128d3612842565b5b6128dd8261252d565b9050602081019050919050565b828183375f83830152505050565b5f61290a612905846128ba565b6128a0565b9050828152602081018484840111156129265761292561283e565b5b6129318482856128ea565b509392505050565b5f82601f83011261294d5761294c61283a565b5b813561295d8482602086016128f8565b91505092915050565b5f805f806080858703121561297e5761297d612430565b5b5f61298b87828801612661565b945050602061299c87828801612661565b93505060406129ad878288016125b4565b925050606085013567ffffffffffffffff8111156129ce576129cd612434565b5b6129da87828801612939565b91505092959194509250565b5f6040820190506129f95f830185612703565b612a0660208301846124c3565b9392505050565b5f8060408385031215612a2357612a22612430565b5b5f612a3085828601612661565b9250506020612a4185828601612661565b9150509250929050565b7f4e487b71000000000000000000000000000000000000000000000000000000005f52602260045260245ffd5b5f6002820490506001821680612a8f57607f821691505b602082108103612aa257612aa1612a4b565b5b50919050565b5f606082019050612abb5f830186612623565b612ac86020830185612703565b612ad56040830184612623565b949350505050565b7f546f6b656e20646f6573206e6f742065786973740000000000000000000000005f82015250565b5f612b116014836124f5565b9150612b1c82612add565b602082019050919050565b5f6020820190508181035f830152612b3e81612b05565b9050919050565b7f496e73756666696369656e742066756e647320666f7220696e697469616c20735f8201527f616c650000000000000000000000000000000000000000000000000000000000602082015250565b5f612b9f6023836124f5565b9150612baa82612b45565b604082019050919050565b5f6020820190508181035f830152612bcc81612b93565b9050919050565b7f4e487b71000000000000000000000000000000000000000000000000000000005f52601160045260245ffd5b5f612c0a82612595565b9150612c1583612595565b9250828203905081811115612c2d57612c2c612bd3565b5b92915050565b7f546f6b656e206973206e6f74206c697374656420666f722073616c65000000005f82015250565b5f612c67601c836124f5565b9150612c7282612c33565b602082019050919050565b5f6020820190508181035f830152612c9481612c5b565b9050919050565b7f496e73756666696369656e742066756e647320666f72207365636f6e646172795f8201527f2070757263686173650000000000000000000000000000000000000000000000602082015250565b5f612cf56029836124f5565b9150612d0082612c9b565b604082019050919050565b5f6020820190508181035f830152612d2281612ce9565b9050919050565b7f43616e6e6f742062757920796f7572206f776e20746f6b656e000000000000005f82015250565b5f612d5d6019836124f5565b9150612d6882612d29565b602082019050919050565b5f6020820190508181035f830152612d8a81612d51565b9050919050565b5f612d9b82612595565b9150612da683612595565b9250828202612db481612595565b91508282048414831517612dcb57612dca612bd3565b5b5092915050565b7f4e487b71000000000000000000000000000000000000000000000000000000005f52601260045260245ffd5b5f612e0982612595565b9150612e1483612595565b925082612e2457612e23612dd2565b5b828204905092915050565b7f4e6f7420746865206f776e6572000000000000000000000000000000000000005f82015250565b5f612e63600d836124f5565b9150612e6e82612e2f565b602082019050919050565b5f6020820190508181035f830152612e9081612e57565b9050919050565b7f5072696365206d7573742062652067726561746572207468616e207a65726f005f82015250565b5f612ecb601f836124f5565b9150612ed682612e97565b602082019050919050565b5f6020820190508181035f830152612ef881612ebf565b9050919050565b7f42617369634e46543a2063616c6c6572206973206e6f7420746f6b656e206f775f8201527f6e6572206f7220617070726f7665640000000000000000000000000000000000602082015250565b5f612f59602f836124f5565b9150612f6482612eff565b604082019050919050565b5f6020820190508181035f830152612f8681612f4d565b9050919050565b7f55524920717565727920666f72206e6f6e6578697374656e7420746f6b656e005f82015250565b5f612fc1601f836124f5565b9150612fcc82612f8d565b602082019050919050565b5f6020820190508181035f830152612fee81612fb5565b9050919050565b5f819050815f5260205f209050919050565b5f6020601f8301049050919050565b5f82821b905092915050565b5f600883026130517fffffffffffffffffffffffffffffffffffffffffffffffffffffffffffffffff82613016565b61305b8683613016565b95508019841693508086168417925050509392505050565b5f819050919050565b5f61309661309161308c84612595565b613073565b612595565b9050919050565b5f819050919050565b6130af8361307c565b6130c36130bb8261309d565b848454613022565b825550505050565b5f90565b6130d76130cb565b6130e28184846130a6565b505050565b5b81811015613105576130fa5f826130cf565b6001810190506130e8565b5050565b601f82111561314a5761311b81612ff5565b61312484613007565b81016020851015613133578190505b61314761313f85613007565b8301826130e7565b50505b505050565b5f82821c905092915050565b5f61316a5f198460080261314f565b1980831691505092915050565b5f613182838361315b565b9150826002028217905092915050565b61319b826124eb565b67ffffffffffffffff8111156131b4576131b3612842565b5b6131be8254612a78565b6131c9828285613109565b5f60209050601f8311600181146131fa575f84156131e8578287015190505b6131f28582613177565b865550613259565b601f19841661320886612ff5565b5f5b8281101561322f5784890151825560018201915060208501945060208101905061320a565b8683101561324c5784890151613248601f89168261315b565b8355505b6001600288020188555050505b505050505050565b5f81519050919050565b5f82825260208201905092915050565b5f61328582613261565b61328f818561326b565b935061329f818560208601612505565b6132a88161252d565b840191505092915050565b5f6080820190506132c65f830187612623565b6132d36020830186612623565b6132e06040830185612703565b81810360608301526132f2818461327b565b905095945050505050565b5f8151905061330b81612463565b92915050565b5f6020828403121561332657613325612430565b5b5f613333848285016132fd565b91505092915050565b5f81905092915050565b5f613350826124eb565b61335a818561333c565b935061336a818560208601612505565b80840191505092915050565b5f6133818285613346565b915061338d8284613346565b91508190509392505050565b5f6040820190506133ac5f830185612623565b6133b96020830184612703565b939250505056fea264697066735822122016532814d3eaa85e7981cd2c498197fb9f6266b600c93144e866345bb010cd0564736f6c63430008180033",
  "linkReferences": {},
  "deployedLinkReferences": {}
}